{
  "abi": [
    {
      "inputs": [],
      "stateMutability": "nonpayable",
      "type": "constructor"
    },
    {
      "anonymous": false,
      "inputs": [
        {
          "indexed": true,
          "internalType": "address",
          "name": "account",
          "type": "address"
        },
        {
          "indexed": true,
          "internalType": "address",
          "name": "operator",
          "type": "address"
        },
        {
          "indexed": false,
          "internalType": "bool",
          "name": "approved",
          "type": "bool"
        }
      ],
      "name": "ApprovalForAll",
      "type": "event"
    },
    {
      "anonymous": false,
      "inputs": [
        {
          "indexed": true,
          "internalType": "address",
          "name": "operator",
          "type": "address"
        },
        {
          "indexed": true,
          "internalType": "address",
          "name": "from",
          "type": "address"
        },
        {
          "indexed": true,
          "internalType": "address",
          "name": "to",
          "type": "address"
        },
        {
          "indexed": false,
          "internalType": "uint256[]",
          "name": "ids",
          "type": "uint256[]"
        },
        {
          "indexed": false,
          "internalType": "uint256[]",
          "name": "values",
          "type": "uint256[]"
        }
      ],
      "name": "TransferBatch",
      "type": "event"
    },
    {
      "anonymous": false,
      "inputs": [
        {
          "indexed": true,
          "internalType": "address",
          "name": "operator",
          "type": "address"
        },
        {
          "indexed": true,
          "internalType": "address",
          "name": "from",
          "type": "address"
        },
        {
          "indexed": true,
          "internalType": "address",
          "name": "to",
          "type": "address"
        },
        {
          "indexed": false,
          "internalType": "uint256",
          "name": "id",
          "type": "uint256"
        },
        {
          "indexed": false,
          "internalType": "uint256",
          "name": "value",
          "type": "uint256"
        }
      ],
      "name": "TransferSingle",
      "type": "event"
    },
    {
      "anonymous": false,
      "inputs": [
        {
          "indexed": false,
          "internalType": "string",
          "name": "value",
          "type": "string"
        },
        {
          "indexed": true,
          "internalType": "uint256",
          "name": "id",
          "type": "uint256"
        }
      ],
      "name": "URI",
      "type": "event"
    },
    {
      "inputs": [],
      "name": "BRONZE",
      "outputs": [
        {
          "internalType": "uint256",
          "name": "",
          "type": "uint256"
        }
      ],
      "stateMutability": "view",
      "type": "function"
    },
    {
      "inputs": [],
      "name": "GOLD",
      "outputs": [
        {
          "internalType": "uint256",
          "name": "",
          "type": "uint256"
        }
      ],
      "stateMutability": "view",
      "type": "function"
    },
    {
      "inputs": [],
      "name": "SILVER",
      "outputs": [
        {
          "internalType": "uint256",
          "name": "",
          "type": "uint256"
        }
      ],
      "stateMutability": "view",
      "type": "function"
    },
    {
      "inputs": [
        {
          "internalType": "address",
          "name": "account",
          "type": "address"
        },
        {
          "internalType": "uint256",
          "name": "id",
          "type": "uint256"
        }
      ],
      "name": "balanceOf",
      "outputs": [
        {
          "internalType": "uint256",
          "name": "",
          "type": "uint256"
        }
      ],
      "stateMutability": "view",
      "type": "function"
    },
    {
      "inputs": [
        {
          "internalType": "address[]",
          "name": "accounts",
          "type": "address[]"
        },
        {
          "internalType": "uint256[]",
          "name": "ids",
          "type": "uint256[]"
        }
      ],
      "name": "balanceOfBatch",
      "outputs": [
        {
          "internalType": "uint256[]",
          "name": "",
          "type": "uint256[]"
        }
      ],
      "stateMutability": "view",
      "type": "function"
    },
    {
      "inputs": [
        {
          "internalType": "address",
          "name": "account",
          "type": "address"
        },
        {
          "internalType": "address",
          "name": "operator",
          "type": "address"
        }
      ],
      "name": "isApprovedForAll",
      "outputs": [
        {
          "internalType": "bool",
          "name": "",
          "type": "bool"
        }
      ],
      "stateMutability": "view",
      "type": "function"
    },
    {
      "inputs": [
        {
          "internalType": "address",
          "name": "to",
          "type": "address"
        },
        {
          "internalType": "uint256",
          "name": "id",
          "type": "uint256"
        },
        {
          "internalType": "uint256",
          "name": "amount",
          "type": "uint256"
        },
        {
          "internalType": "bytes",
          "name": "data",
          "type": "bytes"
        }
      ],
      "name": "mint",
      "outputs": [],
      "stateMutability": "nonpayable",
      "type": "function"
    },
    {
      "inputs": [
        {
          "internalType": "address",
          "name": "from",
          "type": "address"
        },
        {
          "internalType": "address",
          "name": "to",
          "type": "address"
        },
        {
          "internalType": "uint256[]",
          "name": "ids",
          "type": "uint256[]"
        },
        {
          "internalType": "uint256[]",
          "name": "amounts",
          "type": "uint256[]"
        },
        {
          "internalType": "bytes",
          "name": "data",
          "type": "bytes"
        }
      ],
      "name": "safeBatchTransferFrom",
      "outputs": [],
      "stateMutability": "nonpayable",
      "type": "function"
    },
    {
      "inputs": [
        {
          "internalType": "address",
          "name": "from",
          "type": "address"
        },
        {
          "internalType": "address",
          "name": "to",
          "type": "address"
        },
        {
          "internalType": "uint256",
          "name": "id",
          "type": "uint256"
        },
        {
          "internalType": "uint256",
          "name": "amount",
          "type": "uint256"
        },
        {
          "internalType": "bytes",
          "name": "data",
          "type": "bytes"
        }
      ],
      "name": "safeTransferFrom",
      "outputs": [],
      "stateMutability": "nonpayable",
      "type": "function"
    },
    {
      "inputs": [
        {
          "internalType": "address",
          "name": "operator",
          "type": "address"
        },
        {
          "internalType": "bool",
          "name": "approved",
          "type": "bool"
        }
      ],
      "name": "setApprovalForAll",
      "outputs": [],
      "stateMutability": "nonpayable",
      "type": "function"
    },
    {
      "inputs": [
        {
          "internalType": "bytes4",
          "name": "interfaceId",
          "type": "bytes4"
        }
      ],
      "name": "supportsInterface",
      "outputs": [
        {
          "internalType": "bool",
          "name": "",
          "type": "bool"
        }
      ],
      "stateMutability": "view",
      "type": "function"
    },
    {
      "inputs": [
        {
          "internalType": "uint256",
          "name": "",
          "type": "uint256"
        }
      ],
      "name": "uri",
      "outputs": [
        {
          "internalType": "string",
          "name": "",
          "type": "string"
        }
      ],
      "stateMutability": "view",
      "type": "function"
    }
  ],
  "bytecode": {
    "object": "0x60806040523480156200001157600080fd5b506040805180820190915260068152654d4544414c5360d01b60208201526200003a8162000041565b50620001c4565b60026200004f8282620000f8565b5050565b634e487b7160e01b600052604160045260246000fd5b600181811c908216806200007e57607f821691505b6020821081036200009f57634e487b7160e01b600052602260045260246000fd5b50919050565b601f821115620000f357600081815260208120601f850160051c81016020861015620000ce5750805b601f850160051c820191505b81811015620000ef57828155600101620000da565b5050505b505050565b81516001600160401b0381111562000114576200011462000053565b6200012c8162000125845462000069565b84620000a5565b602080601f8311600181146200016457600084156200014b5750858301515b600019600386901b1c1916600185901b178555620000ef565b600085815260208120601f198616915b82811015620001955788860151825594840194600190910190840162000174565b5085821015620001b45787850151600019600388901b60f8161c191681555b5050505050600190811b01905550565b61155280620001d46000396000f3fe608060405234801561001057600080fd5b50600436106100b35760003560e01c8063731133e911610071578063731133e91461015e578063a22cb46514610171578063e00fd54314610184578063e3e55f081461018c578063e985e9c514610194578063f242432a146101d057600080fd5b8062fdd58e146100b857806301ffc9a7146100de5780630e89341c146101015780632eb2c2d6146101215780633e4bee38146101365780634e1273f41461013e575b600080fd5b6100cb6100c6366004610cb4565b6101e3565b6040519081526020015b60405180910390f35b6100f16100ec366004610cf7565b61027c565b60405190151581526020016100d5565b61011461010f366004610d1b565b6102cc565b6040516100d59190610d7a565b61013461012f366004610ed9565b610360565b005b6100cb600081565b61015161014c366004610f83565b6103ac565b6040516100d59190611089565b61013461016c36600461109c565b6104d6565b61013461017f3660046110fd565b6104e8565b6100cb600281565b6100cb600181565b6100f16101a2366004611139565b6001600160a01b03918216600090815260016020908152604080832093909416825291909152205460ff1690565b6101346101de36600461116c565b6104f7565b60006001600160a01b0383166102535760405162461bcd60e51b815260206004820152602a60248201527f455243313135353a2061646472657373207a65726f206973206e6f742061207660448201526930b634b21037bbb732b960b11b60648201526084015b60405180910390fd5b506000818152602081815260408083206001600160a01b03861684529091529020545b92915050565b60006001600160e01b03198216636cdb3d1360e11b14806102ad57506001600160e01b031982166303a24d0760e21b145b8061027657506301ffc9a760e01b6001600160e01b0319831614610276565b6060600280546102db906111d1565b80601f0160208091040260200160405190810160405280929190818152602001828054610307906111d1565b80156103545780601f1061032957610100808354040283529160200191610354565b820191906000526020600020905b81548152906001019060200180831161033757829003601f168201915b50505050509050919050565b6001600160a01b03851633148061037c575061037c85336101a2565b6103985760405162461bcd60e51b815260040161024a9061120b565b6103a5858585858561053c565b5050505050565b606081518351146104115760405162461bcd60e51b815260206004820152602960248201527f455243313135353a206163636f756e747320616e6420696473206c656e677468604482015268040dad2e6dac2e8c6d60bb1b606482015260840161024a565b6000835167ffffffffffffffff81111561042d5761042d610d8d565b604051908082528060200260200182016040528015610456578160200160208202803683370190505b50905060005b84518110156104ce576104a185828151811061047a5761047a611259565b602002602001015185838151811061049457610494611259565b60200260200101516101e3565b8282815181106104b3576104b3611259565b60209081029190910101526104c781611285565b905061045c565b509392505050565b6104e284848484610719565b50505050565b6104f333838361082d565b5050565b6001600160a01b038516331480610513575061051385336101a2565b61052f5760405162461bcd60e51b815260040161024a9061120b565b6103a5858585858561090d565b815183511461059e5760405162461bcd60e51b815260206004820152602860248201527f455243313135353a2069647320616e6420616d6f756e7473206c656e677468206044820152670dad2e6dac2e8c6d60c31b606482015260840161024a565b6001600160a01b0384166105c45760405162461bcd60e51b815260040161024a9061129e565b3360005b84518110156106ab5760008582815181106105e5576105e5611259565b60200260200101519050600085838151811061060357610603611259565b602090810291909101810151600084815280835260408082206001600160a01b038e1683529093529190912054909150818110156106535760405162461bcd60e51b815260040161024a906112e3565b6000838152602081815260408083206001600160a01b038e8116855292528083208585039055908b1682528120805484929061069090849061132d565b92505081905550505050806106a490611285565b90506105c8565b50846001600160a01b0316866001600160a01b0316826001600160a01b03167f4a39dc06d4c0dbc64b70af90fd698a233a518aa5d07e595d983b8c0526c8f7fb87876040516106fb929190611340565b60405180910390a4610711818787878787610a37565b505050505050565b6001600160a01b0384166107795760405162461bcd60e51b815260206004820152602160248201527f455243313135353a206d696e7420746f20746865207a65726f206164647265736044820152607360f81b606482015260840161024a565b33600061078585610b92565b9050600061079285610b92565b90506000868152602081815260408083206001600160a01b038b168452909152812080548792906107c490849061132d565b909155505060408051878152602081018790526001600160a01b03808a1692600092918716917fc3d58168c5ae7397731d063d5bbf3d657854427343f4c083240f7aacaa2d0f62910160405180910390a461082483600089898989610bdd565b50505050505050565b816001600160a01b0316836001600160a01b0316036108a05760405162461bcd60e51b815260206004820152602960248201527f455243313135353a2073657474696e6720617070726f76616c20737461747573604482015268103337b91039b2b63360b91b606482015260840161024a565b6001600160a01b03838116600081815260016020908152604080832094871680845294825291829020805460ff191686151590811790915591519182527f17307eab39ab6107e8899845ad3d59bd9653f200f220920489ca2b5937696c31910160405180910390a3505050565b6001600160a01b0384166109335760405162461bcd60e51b815260040161024a9061129e565b33600061093f85610b92565b9050600061094c85610b92565b90506000868152602081815260408083206001600160a01b038c1684529091529020548581101561098f5760405162461bcd60e51b815260040161024a906112e3565b6000878152602081815260408083206001600160a01b038d8116855292528083208985039055908a168252812080548892906109cc90849061132d565b909155505060408051888152602081018890526001600160a01b03808b16928c821692918816917fc3d58168c5ae7397731d063d5bbf3d657854427343f4c083240f7aacaa2d0f62910160405180910390a4610a2c848a8a8a8a8a610bdd565b505050505050505050565b6001600160a01b0384163b156107115760405163bc197c8160e01b81526001600160a01b0385169063bc197c8190610a7b908990899088908890889060040161136e565b6020604051808303816000875af1925050508015610ab6575060408051601f3d908101601f19168201909252610ab3918101906113cc565b60015b610b6257610ac26113e9565b806308c379a003610afb5750610ad6611405565b80610ae15750610afd565b8060405162461bcd60e51b815260040161024a9190610d7a565b505b60405162461bcd60e51b815260206004820152603460248201527f455243313135353a207472616e7366657220746f206e6f6e2d455243313135356044820152732932b1b2b4bb32b91034b6b83632b6b2b73a32b960611b606482015260840161024a565b6001600160e01b0319811663bc197c8160e01b146108245760405162461bcd60e51b815260040161024a9061148f565b60408051600180825281830190925260609160009190602080830190803683370190505090508281600081518110610bcc57610bcc611259565b602090810291909101015292915050565b6001600160a01b0384163b156107115760405163f23a6e6160e01b81526001600160a01b0385169063f23a6e6190610c2190899089908890889088906004016114d7565b6020604051808303816000875af1925050508015610c5c575060408051601f3d908101601f19168201909252610c59918101906113cc565b60015b610c6857610ac26113e9565b6001600160e01b0319811663f23a6e6160e01b146108245760405162461bcd60e51b815260040161024a9061148f565b80356001600160a01b0381168114610caf57600080fd5b919050565b60008060408385031215610cc757600080fd5b610cd083610c98565b946020939093013593505050565b6001600160e01b031981168114610cf457600080fd5b50565b600060208284031215610d0957600080fd5b8135610d1481610cde565b9392505050565b600060208284031215610d2d57600080fd5b5035919050565b6000815180845260005b81811015610d5a57602081850181015186830182015201610d3e565b506000602082860101526020601f19601f83011685010191505092915050565b602081526000610d146020830184610d34565b634e487b7160e01b600052604160045260246000fd5b601f8201601f1916810167ffffffffffffffff81118282101715610dc957610dc9610d8d565b6040525050565b600067ffffffffffffffff821115610dea57610dea610d8d565b5060051b60200190565b600082601f830112610e0557600080fd5b81356020610e1282610dd0565b604051610e1f8282610da3565b83815260059390931b8501820192828101915086841115610e3f57600080fd5b8286015b84811015610e5a5780358352918301918301610e43565b509695505050505050565b600082601f830112610e7657600080fd5b813567ffffffffffffffff811115610e9057610e90610d8d565b604051610ea7601f8301601f191660200182610da3565b818152846020838601011115610ebc57600080fd5b816020850160208301376000918101602001919091529392505050565b600080600080600060a08688031215610ef157600080fd5b610efa86610c98565b9450610f0860208701610c98565b9350604086013567ffffffffffffffff80821115610f2557600080fd5b610f3189838a01610df4565b94506060880135915080821115610f4757600080fd5b610f5389838a01610df4565b93506080880135915080821115610f6957600080fd5b50610f7688828901610e65565b9150509295509295909350565b60008060408385031215610f9657600080fd5b823567ffffffffffffffff80821115610fae57600080fd5b818501915085601f830112610fc257600080fd5b81356020610fcf82610dd0565b604051610fdc8282610da3565b83815260059390931b8501820192828101915089841115610ffc57600080fd5b948201945b838610156110215761101286610c98565b82529482019490820190611001565b9650508601359250508082111561103757600080fd5b5061104485828601610df4565b9150509250929050565b600081518084526020808501945080840160005b8381101561107e57815187529582019590820190600101611062565b509495945050505050565b602081526000610d14602083018461104e565b600080600080608085870312156110b257600080fd5b6110bb85610c98565b93506020850135925060408501359150606085013567ffffffffffffffff8111156110e557600080fd5b6110f187828801610e65565b91505092959194509250565b6000806040838503121561111057600080fd5b61111983610c98565b91506020830135801515811461112e57600080fd5b809150509250929050565b6000806040838503121561114c57600080fd5b61115583610c98565b915061116360208401610c98565b90509250929050565b600080600080600060a0868803121561118457600080fd5b61118d86610c98565b945061119b60208701610c98565b93506040860135925060608601359150608086013567ffffffffffffffff8111156111c557600080fd5b610f7688828901610e65565b600181811c908216806111e557607f821691505b60208210810361120557634e487b7160e01b600052602260045260246000fd5b50919050565b6020808252602e908201527f455243313135353a2063616c6c6572206973206e6f7420746f6b656e206f776e60408201526d195c881bdc88185c1c1c9bdd995960921b606082015260800190565b634e487b7160e01b600052603260045260246000fd5b634e487b7160e01b600052601160045260246000fd5b6000600182016112975761129761126f565b5060010190565b60208082526025908201527f455243313135353a207472616e7366657220746f20746865207a65726f206164604082015264647265737360d81b606082015260800190565b6020808252602a908201527f455243313135353a20696e73756666696369656e742062616c616e636520666f60408201526939103a3930b739b332b960b11b606082015260800190565b808201808211156102765761027661126f565b604081526000611353604083018561104e565b8281036020840152611365818561104e565b95945050505050565b6001600160a01b0386811682528516602082015260a06040820181905260009061139a9083018661104e565b82810360608401526113ac818661104e565b905082810360808401526113c08185610d34565b98975050505050505050565b6000602082840312156113de57600080fd5b8151610d1481610cde565b600060033d11156114025760046000803e5060005160e01c5b90565b600060443d10156114135790565b6040516003193d81016004833e81513d67ffffffffffffffff816024840111818411171561144357505050505090565b828501915081518181111561145b5750505050505090565b843d87010160208285010111156114755750505050505090565b61148460208286010187610da3565b509095945050505050565b60208082526028908201527f455243313135353a204552433131353552656365697665722072656a656374656040820152676420746f6b656e7360c01b606082015260800190565b6001600160a01b03868116825285166020820152604081018490526060810183905260a06080820181905260009061151190830184610d34565b97965050505050505056fea264697066735822122021cf1db2424073626ec87af8529db25e9ead9e153da7b39edd06c22fe7bd225964736f6c63430008110033",
    "linkReferences": {}
  },
  "methodIdentifiers": {
    "BRONZE()": "e00fd543",
    "GOLD()": "3e4bee38",
    "SILVER()": "e3e55f08",
    "balanceOf(address,uint256)": "00fdd58e",
    "balanceOfBatch(address[],uint256[])": "4e1273f4",
    "isApprovedForAll(address,address)": "e985e9c5",
    "mint(address,uint256,uint256,bytes)": "731133e9",
    "safeBatchTransferFrom(address,address,uint256[],uint256[],bytes)": "2eb2c2d6",
    "safeTransferFrom(address,address,uint256,uint256,bytes)": "f242432a",
    "setApprovalForAll(address,bool)": "a22cb465",
    "supportsInterface(bytes4)": "01ffc9a7",
    "uri(uint256)": "0e89341c"
  },
  "id": 39
}