{
  "abi": [
    {
      "inputs": [
        {
          "internalType": "uint160",
          "name": "sqrtPriceX96",
          "type": "uint160"
        }
      ],
      "name": "getPriceX96FromSqrtPriceX96",
      "outputs": [
        {
          "internalType": "uint256",
          "name": "priceX96",
          "type": "uint256"
        }
      ],
      "stateMutability": "pure",
      "type": "function"
    },
    {
      "inputs": [
        {
          "internalType": "address",
          "name": "uniswapV3Pool",
          "type": "address"
        },
        {
          "internalType": "uint32",
          "name": "twapInterval",
          "type": "uint32"
        }
      ],
      "name": "getSqrtTwapX96",
      "outputs": [
        {
          "internalType": "uint160",
          "name": "sqrtPriceX96",
          "type": "uint160"
        }
      ],
      "stateMutability": "view",
      "type": "function"
    }
  ],
  "bytecode": {
    "object": "0x608060405234801561001057600080fd5b50610802806100206000396000f3fe608060405234801561001057600080fd5b50600436106100365760003560e01c806347628f601461003b5780634e09a61014610089575b600080fd5b61006d6004803603604081101561005157600080fd5b5080356001600160a01b0316906020013563ffffffff166100c1565b604080516001600160a01b039092168252519081900360200190f35b6100af6004803603602081101561009f57600080fd5b50356001600160a01b03166103d0565b60408051918252519081900360200190f35b600063ffffffff821661013a57826001600160a01b0316633850c7bd6040518163ffffffff1660e01b815260040160e06040518083038186803b15801561010757600080fd5b505afa15801561011b573d6000803e3d6000fd5b505050506040513d60e081101561013157600080fd5b505190506103ca565b604080516002808252606082018352600092602083019080368337019050509050828160008151811061016957fe5b602002602001019063ffffffff16908163ffffffff168152505060008160018151811061019257fe5b63ffffffff90921660209283029190910182015260405163883bdbfd60e01b8152600481018281528351602483015283516000936001600160a01b0389169363883bdbfd938793909283926044019185820191028083838b5b838110156102035781810151838201526020016101eb565b505050509050019250505060006040518083038186803b15801561022657600080fd5b505afa15801561023a573d6000803e3d6000fd5b505050506040513d6000823e601f3d908101601f19168201604090815281101561026357600080fd5b810190808051604051939291908464010000000082111561028357600080fd5b90830190602082018581111561029857600080fd5b82518660208202830111640100000000821117156102b557600080fd5b82525081516020918201928201910280838360005b838110156102e25781810151838201526020016102ca565b505050509050016040526020018051604051939291908464010000000082111561030b57600080fd5b90830190602082018581111561032057600080fd5b825186602082028301116401000000008211171561033d57600080fd5b82525081516020918201928201910280838360005b8381101561036a578181015183820152602001610352565b505050509050016040525050505090506103c58463ffffffff168260008151811061039157fe5b6020026020010151836001815181106103a657fe5b60200260200101510366ffffffffffffff16816103bf57fe5b046103ea565b925050505b92915050565b60006103ca6001600160a01b03831680600160601b61071c565b60008060008360020b12610401578260020b610409565b8260020b6000035b9050620d89e8811115610447576040805162461bcd60e51b81526020600482015260016024820152601560fa1b604482015290519081900360640190fd5b60006001821661045b57600160801b61046d565b6ffffcb933bd6fad37aa2d162d1a5940015b70ffffffffffffffffffffffffffffffffff16905060028216156104a1576ffff97272373d413259a46990580e213a0260801c5b60048216156104c0576ffff2e50f5f656932ef12357cf3c7fdcc0260801c5b60088216156104df576fffe5caca7e10e4e61c3624eaa0941cd00260801c5b60108216156104fe576fffcb9843d60f6159c9db58835c9266440260801c5b602082161561051d576fff973b41fa98c081472e6896dfb254c00260801c5b604082161561053c576fff2ea16466c96a3843ec78b326b528610260801c5b608082161561055b576ffe5dee046a99a2a811c461f1969c30530260801c5b61010082161561057b576ffcbe86c7900a88aedcffc83b479aa3a40260801c5b61020082161561059b576ff987a7253ac413176f2b074cf7815e540260801c5b6104008216156105bb576ff3392b0822b70005940c7a398e4b70f30260801c5b6108008216156105db576fe7159475a2c29b7443b29c7fa6e889d90260801c5b6110008216156105fb576fd097f3bdfd2022b8845ad8f792aa58250260801c5b61200082161561061b576fa9f746462d870fdf8a65dc1f90e061e50260801c5b61400082161561063b576f70d869a156d2a1b890bb3df62baf32f70260801c5b61800082161561065b576f31be135f97d08fd981231505542fcfa60260801c5b6201000082161561067c576f09aa508b5b7a84e1c677de54f3e99bc90260801c5b6202000082161561069c576e5d6af8dedb81196699c329225ee6040260801c5b620400008216156106bb576d2216e584f5fa1ea926041bedfe980260801c5b620800008216156106d8576b048a170391f7dc42444e8fa20260801c5b60008460020b13156106f35780600019816106ef57fe5b0490505b64010000000081061561070757600161070a565b60005b60ff16602082901c0192505050919050565b6000808060001985870986860292508281109083900303905080610752576000841161074757600080fd5b5082900490506107c5565b80841161075e57600080fd5b6000848688096000868103871696879004966002600389028118808a02820302808a02820302808a02820302808a02820302808a02820302808a02909103029181900381900460010186841190950394909402919094039290920491909117919091029150505b939250505056fea264697066735822122061f8b3b4f94db05e0a9a57c59cf1e12ee39b02c3427a9813b2843e0aed4e785a64736f6c63430007060033",
    "linkReferences": {}
  },
  "methodIdentifiers": {
    "getPriceX96FromSqrtPriceX96(uint160)": "4e09a610",
    "getSqrtTwapX96(address,uint32)": "47628f60"
  },
  "id": 10
}