{
  "abi": [
    {
      "inputs": [
        {
          "internalType": "address",
          "name": "tokenA",
          "type": "address"
        },
        {
          "internalType": "address",
          "name": "tokenB",
          "type": "address"
        }
      ],
      "name": "price",
      "outputs": [
        {
          "internalType": "uint256",
          "name": "",
          "type": "uint256"
        }
      ],
      "stateMutability": "view",
      "type": "function"
    }
  ],
  "bytecode": {
    "object": "0x608060405234801561001057600080fd5b5060d18061001f6000396000f3fe6080604052348015600f57600080fd5b506004361060285760003560e01c80632b00490d14602d575b600080fd5b60406038366004606d565b607b92915050565b60405190815260200160405180910390f35b80356001600160a01b0381168114606857600080fd5b919050565b60008060408385031215607f57600080fd5b6086836052565b91506092602084016052565b9050925092905056fea264697066735822122033e738ef1770060ba89f8f85efe3e85bf9789300b382c7bce214e48ac951e78564736f6c63430008110033",
    "linkReferences": {}
  },
  "methodIdentifiers": {
    "price(address,address)": "2b00490d"
  },
  "id": 15
}