{
  "abi": [
    {
      "inputs": [
        {
          "internalType": "uint160",
          "name": "sqrtPriceX96",
          "type": "uint160"
        }
      ],
      "name": "getPriceX96FromSqrtPriceX96",
      "outputs": [
        {
          "internalType": "uint256",
          "name": "priceX96",
          "type": "uint256"
        }
      ],
      "stateMutability": "pure",
      "type": "function"
    },
    {
      "inputs": [
        {
          "internalType": "address",
          "name": "uniswapV3Pool",
          "type": "address"
        },
        {
          "internalType": "uint32[]",
          "name": "secondsAgos",
          "type": "uint32[]"
        }
      ],
      "name": "getTwapX96",
      "outputs": [
        {
          "internalType": "uint256",
          "name": "priceX96",
          "type": "uint256"
        }
      ],
      "stateMutability": "view",
      "type": "function"
    },
    {
      "inputs": [
        {
          "internalType": "address",
          "name": "uniswapV3Pool",
          "type": "address"
        },
        {
          "internalType": "uint32",
          "name": "twapInterval",
          "type": "uint32"
        }
      ],
      "name": "getTwapX96",
      "outputs": [
        {
          "internalType": "uint256",
          "name": "priceX96",
          "type": "uint256"
        }
      ],
      "stateMutability": "view",
      "type": "function"
    },
    {
      "inputs": [
        {
          "internalType": "address",
          "name": "uniswapV3Pool",
          "type": "address"
        },
        {
          "internalType": "uint32",
          "name": "twapIntervalFrom",
          "type": "uint32"
        },
        {
          "internalType": "uint32",
          "name": "twapIntervalTo",
          "type": "uint32"
        }
      ],
      "name": "getTwapX96",
      "outputs": [
        {
          "internalType": "uint256",
          "name": "priceX96",
          "type": "uint256"
        }
      ],
      "stateMutability": "view",
      "type": "function"
    }
  ],
  "bytecode": {
    "object": "0x608060405234801561001057600080fd5b50610a1a806100206000396000f3fe608060405234801561001057600080fd5b506004361061004c5760003560e01c806348b9d655146100515780634e09a610146101145780638c363ec21461013a578063f718aef91461016c575b600080fd5b6101026004803603604081101561006757600080fd5b6001600160a01b038235169190810190604081016020820135600160201b81111561009157600080fd5b8201836020820111156100a357600080fd5b803590602001918460208302840111600160201b831117156100c457600080fd5b9190808060200260200160405190810160405280939291908181526020018383602002808284376000920191909152509295506101a6945050505050565b60408051918252519081900360200190f35b6101026004803603602081101561012a57600080fd5b50356001600160a01b03166104db565b6101026004803603604081101561015057600080fd5b5080356001600160a01b0316906020013563ffffffff166104fb565b6101026004803603606081101561018257600080fd5b506001600160a01b038135169063ffffffff6020820135811691604001351661057b565b60008082516000141561021f57836001600160a01b0316633850c7bd6040518163ffffffff1660e01b815260040160e06040518083038186803b1580156101ec57600080fd5b505afa158015610200573d6000803e3d6000fd5b505050506040513d60e081101561021657600080fd5b505190506104ca565b60008360018151811061022e57fe5b60200260200101518460008151811061024357fe5b602002602001015103905060008160030b136102a6576040805162461bcd60e51b815260206004820152601a60248201527f496e76616c6964207365636f6e647341676f732076616c756573000000000000604482015290519081900360640190fd5b6000856001600160a01b031663883bdbfd866040518263ffffffff1660e01b81526004018080602001828103825283818151815260200191508051906020019060200280838360005b838110156103075781810151838201526020016102ef565b505050509050019250505060006040518083038186803b15801561032a57600080fd5b505afa15801561033e573d6000803e3d6000fd5b505050506040513d6000823e601f3d908101601f19168201604090815281101561036757600080fd5b8101908080516040519392919084600160201b82111561038657600080fd5b90830190602082018581111561039b57600080fd5b82518660208202830111600160201b821117156103b757600080fd5b82525081516020918201928201910280838360005b838110156103e45781810151838201526020016103cc565b5050505090500160405260200180516040519392919084600160201b82111561040c57600080fd5b90830190602082018581111561042157600080fd5b82518660208202830111600160201b8211171561043d57600080fd5b82525081516020918201928201910280838360005b8381101561046a578181015183820152602001610452565b505050509050016040525050505090506104c58263ffffffff168260008151811061049157fe5b6020026020010151836001815181106104a657fe5b60200260200101510366ffffffffffffff16816104bf57fe5b04610603565b925050505b6104d3816104db565b949350505050565b60006104f56001600160a01b03831680600160601b610934565b92915050565b60408051600280825260608201835260009283929190602083019080368337019050509050828160008151811061052e57fe5b602002602001019063ffffffff16908163ffffffff168152505060008160018151811061055757fe5b602002602001019063ffffffff16908163ffffffff16815250506104d384826101a6565b6040805160028082526060820183526000928392919060208301908036833701905050905083816000815181106105ae57fe5b602002602001019063ffffffff16908163ffffffff168152505082816001815181106105d657fe5b602002602001019063ffffffff16908163ffffffff16815250506105fa85826101a6565b95945050505050565b60008060008360020b1261061a578260020b610622565b8260020b6000035b9050620d89e8811115610660576040805162461bcd60e51b81526020600482015260016024820152601560fa1b604482015290519081900360640190fd5b60006001821661067457600160801b610686565b6ffffcb933bd6fad37aa2d162d1a5940015b70ffffffffffffffffffffffffffffffffff16905060028216156106ba576ffff97272373d413259a46990580e213a0260801c5b60048216156106d9576ffff2e50f5f656932ef12357cf3c7fdcc0260801c5b60088216156106f8576fffe5caca7e10e4e61c3624eaa0941cd00260801c5b6010821615610717576fffcb9843d60f6159c9db58835c9266440260801c5b6020821615610736576fff973b41fa98c081472e6896dfb254c00260801c5b6040821615610755576fff2ea16466c96a3843ec78b326b528610260801c5b6080821615610774576ffe5dee046a99a2a811c461f1969c30530260801c5b610100821615610794576ffcbe86c7900a88aedcffc83b479aa3a40260801c5b6102008216156107b4576ff987a7253ac413176f2b074cf7815e540260801c5b6104008216156107d4576ff3392b0822b70005940c7a398e4b70f30260801c5b6108008216156107f4576fe7159475a2c29b7443b29c7fa6e889d90260801c5b611000821615610814576fd097f3bdfd2022b8845ad8f792aa58250260801c5b612000821615610834576fa9f746462d870fdf8a65dc1f90e061e50260801c5b614000821615610854576f70d869a156d2a1b890bb3df62baf32f70260801c5b618000821615610874576f31be135f97d08fd981231505542fcfa60260801c5b62010000821615610895576f09aa508b5b7a84e1c677de54f3e99bc90260801c5b620200008216156108b5576e5d6af8dedb81196699c329225ee6040260801c5b620400008216156108d4576d2216e584f5fa1ea926041bedfe980260801c5b620800008216156108f1576b048a170391f7dc42444e8fa20260801c5b60008460020b131561090c57806000198161090857fe5b0490505b600160201b81061561091f576001610922565b60005b60ff16602082901c0192505050919050565b600080806000198587098686029250828110908390030390508061096a576000841161095f57600080fd5b5082900490506109dd565b80841161097657600080fd5b6000848688096000868103871696879004966002600389028118808a02820302808a02820302808a02820302808a02820302808a02820302808a02909103029181900381900460010186841190950394909402919094039290920491909117919091029150505b939250505056fea2646970667358221220f7b9756930789eaf56f79d01ca6080dc1ba532016aa6a4b7ecae5caff55c182364736f6c63430007060033",
    "linkReferences": {}
  },
  "methodIdentifiers": {
    "getPriceX96FromSqrtPriceX96(uint160)": "4e09a610",
    "getTwapX96(address,uint32)": "8c363ec2",
    "getTwapX96(address,uint32,uint32)": "f718aef9",
    "getTwapX96(address,uint32[])": "48b9d655"
  },
  "id": 10
}