{
  "abi": [
    {
      "inputs": [],
      "name": "BlockMined",
      "type": "error"
    },
    {
      "inputs": [],
      "name": "BlockNotMined",
      "type": "error"
    },
    {
      "inputs": [],
      "name": "IdNotAllowed",
      "type": "error"
    },
    {
      "inputs": [],
      "name": "MerkleProofAndAmountMismatch",
      "type": "error"
    },
    {
      "inputs": [],
      "name": "MerkleProofsRequired",
      "type": "error"
    },
    {
      "inputs": [],
      "name": "NftIdAlreadyOwned",
      "type": "error"
    },
    {
      "inputs": [],
      "name": "NftIdNotReceived",
      "type": "error"
    },
    {
      "inputs": [
        {
          "internalType": "uint256",
          "name": "amountReceived",
          "type": "uint256"
        }
      ],
      "name": "NotEnoughTokenReceived",
      "type": "error"
    },
    {
      "inputs": [],
      "name": "UnsupportedTokenStandard",
      "type": "error"
    },
    {
      "inputs": [
        {
          "internalType": "bytes32[]",
          "name": "swapsIds",
          "type": "bytes32[]"
        }
      ],
      "name": "bindLimitSwapFills",
      "outputs": [],
      "stateMutability": "nonpayable",
      "type": "function"
    },
    {
      "inputs": [
        {
          "internalType": "bytes32",
          "name": "id",
          "type": "bytes32"
        }
      ],
      "name": "createSeaportListing",
      "outputs": [],
      "stateMutability": "nonpayable",
      "type": "function"
    },
    {
      "inputs": [
        {
          "internalType": "bytes32",
          "name": "swap0",
          "type": "bytes32"
        },
        {
          "internalType": "bytes32",
          "name": "swap1",
          "type": "bytes32"
        }
      ],
      "name": "invertLimitSwapFills",
      "outputs": [],
      "stateMutability": "nonpayable",
      "type": "function"
    },
    {
      "inputs": [
        {
          "internalType": "bytes32",
          "name": "id",
          "type": "bytes32"
        },
        {
          "internalType": "address",
          "name": "owner",
          "type": "address"
        },
        {
          "components": [
            {
              "internalType": "enum TokenStandard",
              "name": "standard",
              "type": "uint8"
            },
            {
              "internalType": "address",
              "name": "addr",
              "type": "address"
            },
            {
              "internalType": "bytes32",
              "name": "idsMerkleRoot",
              "type": "bytes32"
            },
            {
              "internalType": "uint256",
              "name": "id",
              "type": "uint256"
            }
          ],
          "internalType": "struct Token",
          "name": "tokenIn",
          "type": "tuple"
        },
        {
          "components": [
            {
              "internalType": "enum TokenStandard",
              "name": "standard",
              "type": "uint8"
            },
            {
              "internalType": "address",
              "name": "addr",
              "type": "address"
            },
            {
              "internalType": "bytes32",
              "name": "idsMerkleRoot",
              "type": "bytes32"
            },
            {
              "internalType": "uint256",
              "name": "id",
              "type": "uint256"
            }
          ],
          "internalType": "struct Token",
          "name": "tokenOut",
          "type": "tuple"
        },
        {
          "internalType": "uint256",
          "name": "tokenInAmount",
          "type": "uint256"
        },
        {
          "internalType": "uint256",
          "name": "basePrice",
          "type": "uint256"
        },
        {
          "internalType": "contract IPriceCurve",
          "name": "priceCurve",
          "type": "address"
        },
        {
          "components": [
            {
              "internalType": "address",
              "name": "recipient",
              "type": "address"
            },
            {
              "internalType": "uint256",
              "name": "tokenInAmount",
              "type": "uint256"
            },
            {
              "internalType": "uint256",
              "name": "tokenInId",
              "type": "uint256"
            },
            {
              "components": [
                {
                  "internalType": "uint256",
                  "name": "id",
                  "type": "uint256"
                },
                {
                  "internalType": "bytes32[]",
                  "name": "proof",
                  "type": "bytes32[]"
                }
              ],
              "internalType": "struct IdMerkleProof[]",
              "name": "tokenInIdMerkleProofs",
              "type": "tuple[]"
            },
            {
              "components": [
                {
                  "internalType": "uint256",
                  "name": "id",
                  "type": "uint256"
                },
                {
                  "internalType": "bytes32[]",
                  "name": "proof",
                  "type": "bytes32[]"
                }
              ],
              "internalType": "struct IdMerkleProof[]",
              "name": "tokenOutIdMerkleProofs",
              "type": "tuple[]"
            },
            {
              "components": [
                {
                  "internalType": "address",
                  "name": "targetContract",
                  "type": "address"
                },
                {
                  "internalType": "bytes",
                  "name": "data",
                  "type": "bytes"
                }
              ],
              "internalType": "struct Primatives01.Call",
              "name": "fillCall",
              "type": "tuple"
            }
          ],
          "internalType": "struct Primatives01.UnsignedLimitSwapData",
          "name": "data",
          "type": "tuple"
        }
      ],
      "name": "limitSwap",
      "outputs": [],
      "stateMutability": "nonpayable",
      "type": "function"
    },
    {
      "inputs": [
        {
          "internalType": "address",
          "name": "oracleContract",
          "type": "address"
        },
        {
          "internalType": "bytes",
          "name": "oracleCall",
          "type": "bytes"
        },
        {
          "internalType": "address",
          "name": "owner",
          "type": "address"
        },
        {
          "components": [
            {
              "internalType": "enum TokenStandard",
              "name": "standard",
              "type": "uint8"
            },
            {
              "internalType": "address",
              "name": "addr",
              "type": "address"
            },
            {
              "internalType": "bytes32",
              "name": "idsMerkleRoot",
              "type": "bytes32"
            },
            {
              "internalType": "uint256",
              "name": "id",
              "type": "uint256"
            }
          ],
          "internalType": "struct Token",
          "name": "tokenIn",
          "type": "tuple"
        },
        {
          "components": [
            {
              "internalType": "enum TokenStandard",
              "name": "standard",
              "type": "uint8"
            },
            {
              "internalType": "address",
              "name": "addr",
              "type": "address"
            },
            {
              "internalType": "bytes32",
              "name": "idsMerkleRoot",
              "type": "bytes32"
            },
            {
              "internalType": "uint256",
              "name": "id",
              "type": "uint256"
            }
          ],
          "internalType": "struct Token",
          "name": "tokenOut",
          "type": "tuple"
        },
        {
          "internalType": "uint256",
          "name": "tokenInAmount",
          "type": "uint256"
        },
        {
          "components": [
            {
              "internalType": "address",
              "name": "recipient",
              "type": "address"
            },
            {
              "internalType": "uint256",
              "name": "tokenInId",
              "type": "uint256"
            },
            {
              "components": [
                {
                  "internalType": "uint256",
                  "name": "id",
                  "type": "uint256"
                },
                {
                  "internalType": "bytes32[]",
                  "name": "proof",
                  "type": "bytes32[]"
                }
              ],
              "internalType": "struct IdMerkleProof[]",
              "name": "tokenInIdMerkleProofs",
              "type": "tuple[]"
            },
            {
              "components": [
                {
                  "internalType": "uint256",
                  "name": "id",
                  "type": "uint256"
                },
                {
                  "internalType": "bytes32[]",
                  "name": "proof",
                  "type": "bytes32[]"
                }
              ],
              "internalType": "struct IdMerkleProof[]",
              "name": "tokenOutIdMerkleProofs",
              "type": "tuple[]"
            },
            {
              "components": [
                {
                  "internalType": "address",
                  "name": "targetContract",
                  "type": "address"
                },
                {
                  "internalType": "bytes",
                  "name": "data",
                  "type": "bytes"
                }
              ],
              "internalType": "struct Primatives01.Call",
              "name": "fillCall",
              "type": "tuple"
            }
          ],
          "internalType": "struct Primatives01.UnsignedMarketSwapData",
          "name": "data",
          "type": "tuple"
        }
      ],
      "name": "marketSwapExactInput",
      "outputs": [],
      "stateMutability": "nonpayable",
      "type": "function"
    },
    {
      "inputs": [
        {
          "internalType": "contract IPriceOracle",
          "name": "priceOracle",
          "type": "address"
        },
        {
          "internalType": "address",
          "name": "owner",
          "type": "address"
        },
        {
          "components": [
            {
              "internalType": "enum TokenStandard",
              "name": "standard",
              "type": "uint8"
            },
            {
              "internalType": "address",
              "name": "addr",
              "type": "address"
            },
            {
              "internalType": "bytes32",
              "name": "idsMerkleRoot",
              "type": "bytes32"
            },
            {
              "internalType": "uint256",
              "name": "id",
              "type": "uint256"
            }
          ],
          "internalType": "struct Token",
          "name": "tokenIn",
          "type": "tuple"
        },
        {
          "components": [
            {
              "internalType": "enum TokenStandard",
              "name": "standard",
              "type": "uint8"
            },
            {
              "internalType": "address",
              "name": "addr",
              "type": "address"
            },
            {
              "internalType": "bytes32",
              "name": "idsMerkleRoot",
              "type": "bytes32"
            },
            {
              "internalType": "uint256",
              "name": "id",
              "type": "uint256"
            }
          ],
          "internalType": "struct Token",
          "name": "tokenOut",
          "type": "tuple"
        },
        {
          "internalType": "uint256",
          "name": "tokenOutAmount",
          "type": "uint256"
        },
        {
          "components": [
            {
              "internalType": "address",
              "name": "recipient",
              "type": "address"
            },
            {
              "internalType": "uint256",
              "name": "tokenInId",
              "type": "uint256"
            },
            {
              "components": [
                {
                  "internalType": "uint256",
                  "name": "id",
                  "type": "uint256"
                },
                {
                  "internalType": "bytes32[]",
                  "name": "proof",
                  "type": "bytes32[]"
                }
              ],
              "internalType": "struct IdMerkleProof[]",
              "name": "tokenInIdMerkleProofs",
              "type": "tuple[]"
            },
            {
              "components": [
                {
                  "internalType": "uint256",
                  "name": "id",
                  "type": "uint256"
                },
                {
                  "internalType": "bytes32[]",
                  "name": "proof",
                  "type": "bytes32[]"
                }
              ],
              "internalType": "struct IdMerkleProof[]",
              "name": "tokenOutIdMerkleProofs",
              "type": "tuple[]"
            },
            {
              "components": [
                {
                  "internalType": "address",
                  "name": "targetContract",
                  "type": "address"
                },
                {
                  "internalType": "bytes",
                  "name": "data",
                  "type": "bytes"
                }
              ],
              "internalType": "struct Primatives01.Call",
              "name": "fillCall",
              "type": "tuple"
            }
          ],
          "internalType": "struct Primatives01.UnsignedMarketSwapData",
          "name": "data",
          "type": "tuple"
        }
      ],
      "name": "marketSwapExactOutput",
      "outputs": [],
      "stateMutability": "nonpayable",
      "type": "function"
    },
    {
      "inputs": [
        {
          "internalType": "bytes32",
          "name": "id",
          "type": "bytes32"
        },
        {
          "internalType": "uint256",
          "name": "numberOfRuns",
          "type": "uint256"
        }
      ],
      "name": "maxRuns",
      "outputs": [],
      "stateMutability": "nonpayable",
      "type": "function"
    },
    {
      "inputs": [
        {
          "internalType": "uint256",
          "name": "bitmapIndex",
          "type": "uint256"
        },
        {
          "internalType": "uint256",
          "name": "bit",
          "type": "uint256"
        }
      ],
      "name": "requireBitNotUsed",
      "outputs": [],
      "stateMutability": "nonpayable",
      "type": "function"
    },
    {
      "inputs": [
        {
          "internalType": "uint256",
          "name": "bitmapIndex",
          "type": "uint256"
        },
        {
          "internalType": "uint256",
          "name": "bit",
          "type": "uint256"
        }
      ],
      "name": "requireBitUsed",
      "outputs": [],
      "stateMutability": "nonpayable",
      "type": "function"
    },
    {
      "inputs": [
        {
          "internalType": "uint256",
          "name": "blockNumber",
          "type": "uint256"
        }
      ],
      "name": "requireBlockMined",
      "outputs": [],
      "stateMutability": "view",
      "type": "function"
    },
    {
      "inputs": [
        {
          "internalType": "uint256",
          "name": "blockNumber",
          "type": "uint256"
        }
      ],
      "name": "requireBlockNotMined",
      "outputs": [],
      "stateMutability": "view",
      "type": "function"
    },
    {
      "inputs": [
        {
          "internalType": "bytes32",
          "name": "id",
          "type": "bytes32"
        },
        {
          "internalType": "uint256",
          "name": "numberOfBlocksElapsed",
          "type": "uint256"
        }
      ],
      "name": "requireBlocksElapsed",
      "outputs": [],
      "stateMutability": "nonpayable",
      "type": "function"
    },
    {
      "inputs": [
        {
          "internalType": "bytes32",
          "name": "id",
          "type": "bytes32"
        }
      ],
      "name": "requireLimitSwapFilled",
      "outputs": [],
      "stateMutability": "nonpayable",
      "type": "function"
    },
    {
      "inputs": [
        {
          "internalType": "bytes32",
          "name": "id",
          "type": "bytes32"
        }
      ],
      "name": "requireLimitSwapOpen",
      "outputs": [],
      "stateMutability": "nonpayable",
      "type": "function"
    },
    {
      "inputs": [
        {
          "internalType": "contract IPriceDeltaOracle",
          "name": "priceDeltaOracle",
          "type": "address"
        },
        {
          "components": [
            {
              "internalType": "enum TokenStandard",
              "name": "standard",
              "type": "uint8"
            },
            {
              "internalType": "address",
              "name": "addr",
              "type": "address"
            },
            {
              "internalType": "bytes32",
              "name": "idsMerkleRoot",
              "type": "bytes32"
            },
            {
              "internalType": "uint256",
              "name": "id",
              "type": "uint256"
            }
          ],
          "internalType": "struct Token",
          "name": "tokenA",
          "type": "tuple"
        },
        {
          "components": [
            {
              "internalType": "enum TokenStandard",
              "name": "standard",
              "type": "uint8"
            },
            {
              "internalType": "address",
              "name": "addr",
              "type": "address"
            },
            {
              "internalType": "bytes32",
              "name": "idsMerkleRoot",
              "type": "bytes32"
            },
            {
              "internalType": "uint256",
              "name": "id",
              "type": "uint256"
            }
          ],
          "internalType": "struct Token",
          "name": "tokenB",
          "type": "tuple"
        },
        {
          "internalType": "uint256",
          "name": "startTime",
          "type": "uint256"
        },
        {
          "internalType": "uint256",
          "name": "duration",
          "type": "uint256"
        },
        {
          "internalType": "uint256",
          "name": "value",
          "type": "uint256"
        }
      ],
      "name": "requirePriceDecrease",
      "outputs": [],
      "stateMutability": "nonpayable",
      "type": "function"
    },
    {
      "inputs": [
        {
          "internalType": "contract IPriceDeltaOracle",
          "name": "priceDeltaOracle",
          "type": "address"
        },
        {
          "components": [
            {
              "internalType": "enum TokenStandard",
              "name": "standard",
              "type": "uint8"
            },
            {
              "internalType": "address",
              "name": "addr",
              "type": "address"
            },
            {
              "internalType": "bytes32",
              "name": "idsMerkleRoot",
              "type": "bytes32"
            },
            {
              "internalType": "uint256",
              "name": "id",
              "type": "uint256"
            }
          ],
          "internalType": "struct Token",
          "name": "tokenA",
          "type": "tuple"
        },
        {
          "components": [
            {
              "internalType": "enum TokenStandard",
              "name": "standard",
              "type": "uint8"
            },
            {
              "internalType": "address",
              "name": "addr",
              "type": "address"
            },
            {
              "internalType": "bytes32",
              "name": "idsMerkleRoot",
              "type": "bytes32"
            },
            {
              "internalType": "uint256",
              "name": "id",
              "type": "uint256"
            }
          ],
          "internalType": "struct Token",
          "name": "tokenB",
          "type": "tuple"
        },
        {
          "internalType": "uint256",
          "name": "startTime",
          "type": "uint256"
        },
        {
          "internalType": "uint256",
          "name": "duration",
          "type": "uint256"
        },
        {
          "internalType": "uint256",
          "name": "value",
          "type": "uint256"
        }
      ],
      "name": "requirePriceIncrease",
      "outputs": [],
      "stateMutability": "nonpayable",
      "type": "function"
    },
    {
      "inputs": [
        {
          "internalType": "contract IPriceOracle",
          "name": "priceOracle",
          "type": "address"
        },
        {
          "components": [
            {
              "internalType": "enum TokenStandard",
              "name": "standard",
              "type": "uint8"
            },
            {
              "internalType": "address",
              "name": "addr",
              "type": "address"
            },
            {
              "internalType": "bytes32",
              "name": "idsMerkleRoot",
              "type": "bytes32"
            },
            {
              "internalType": "uint256",
              "name": "id",
              "type": "uint256"
            }
          ],
          "internalType": "struct Token",
          "name": "tokenA",
          "type": "tuple"
        },
        {
          "components": [
            {
              "internalType": "enum TokenStandard",
              "name": "standard",
              "type": "uint8"
            },
            {
              "internalType": "address",
              "name": "addr",
              "type": "address"
            },
            {
              "internalType": "bytes32",
              "name": "idsMerkleRoot",
              "type": "bytes32"
            },
            {
              "internalType": "uint256",
              "name": "id",
              "type": "uint256"
            }
          ],
          "internalType": "struct Token",
          "name": "tokenB",
          "type": "tuple"
        },
        {
          "internalType": "uint256",
          "name": "value",
          "type": "uint256"
        }
      ],
      "name": "requirePriceLowerBound",
      "outputs": [],
      "stateMutability": "nonpayable",
      "type": "function"
    },
    {
      "inputs": [
        {
          "internalType": "contract IPriceOracle",
          "name": "priceOracle",
          "type": "address"
        },
        {
          "components": [
            {
              "internalType": "enum TokenStandard",
              "name": "standard",
              "type": "uint8"
            },
            {
              "internalType": "address",
              "name": "addr",
              "type": "address"
            },
            {
              "internalType": "bytes32",
              "name": "idsMerkleRoot",
              "type": "bytes32"
            },
            {
              "internalType": "uint256",
              "name": "id",
              "type": "uint256"
            }
          ],
          "internalType": "struct Token",
          "name": "tokenA",
          "type": "tuple"
        },
        {
          "components": [
            {
              "internalType": "enum TokenStandard",
              "name": "standard",
              "type": "uint8"
            },
            {
              "internalType": "address",
              "name": "addr",
              "type": "address"
            },
            {
              "internalType": "bytes32",
              "name": "idsMerkleRoot",
              "type": "bytes32"
            },
            {
              "internalType": "uint256",
              "name": "id",
              "type": "uint256"
            }
          ],
          "internalType": "struct Token",
          "name": "tokenB",
          "type": "tuple"
        },
        {
          "internalType": "uint256",
          "name": "value",
          "type": "uint256"
        }
      ],
      "name": "requirePriceUpperBound",
      "outputs": [],
      "stateMutability": "nonpayable",
      "type": "function"
    },
    {
      "inputs": [
        {
          "components": [
            {
              "internalType": "bytes",
              "name": "stakerSignature",
              "type": "bytes"
            }
          ],
          "internalType": "struct Primatives01.UnsignedStakeProofData",
          "name": "data",
          "type": "tuple"
        }
      ],
      "name": "requireStake",
      "outputs": [],
      "stateMutability": "nonpayable",
      "type": "function"
    },
    {
      "inputs": [
        {
          "components": [
            {
              "internalType": "enum TokenStandard",
              "name": "standard",
              "type": "uint8"
            },
            {
              "internalType": "address",
              "name": "addr",
              "type": "address"
            },
            {
              "internalType": "bytes32",
              "name": "idsMerkleRoot",
              "type": "bytes32"
            },
            {
              "internalType": "uint256",
              "name": "id",
              "type": "uint256"
            }
          ],
          "internalType": "struct Token",
          "name": "token",
          "type": "tuple"
        },
        {
          "internalType": "address",
          "name": "owner",
          "type": "address"
        },
        {
          "internalType": "address",
          "name": "recipient",
          "type": "address"
        },
        {
          "internalType": "uint256",
          "name": "amount",
          "type": "uint256"
        },
        {
          "internalType": "uint256",
          "name": "id",
          "type": "uint256"
        },
        {
          "components": [
            {
              "internalType": "address",
              "name": "recipient",
              "type": "address"
            },
            {
              "components": [
                {
                  "internalType": "uint256",
                  "name": "id",
                  "type": "uint256"
                },
                {
                  "internalType": "bytes32[]",
                  "name": "proof",
                  "type": "bytes32[]"
                }
              ],
              "internalType": "struct IdMerkleProof[]",
              "name": "idMerkleProofs",
              "type": "tuple[]"
            }
          ],
          "internalType": "struct Primatives01.UnsignedTransferData",
          "name": "data",
          "type": "tuple"
        }
      ],
      "name": "transfer",
      "outputs": [],
      "stateMutability": "nonpayable",
      "type": "function"
    },
    {
      "inputs": [
        {
          "internalType": "uint256",
          "name": "bitmapIndex",
          "type": "uint256"
        },
        {
          "internalType": "uint256",
          "name": "bit",
          "type": "uint256"
        }
      ],
      "name": "useBit",
      "outputs": [],
      "stateMutability": "nonpayable",
      "type": "function"
    }
  ],
  "bytecode": {
    "object": "0x608060405234801561001057600080fd5b50611a3d806100206000396000f3fe608060405234801561001057600080fd5b50600436106101375760003560e01c806361ebbca8116100b8578063a9aa5f7e1161007c578063a9aa5f7e14610162578063b4caf1cb14610162578063be330dbd146101e0578063db5b273a14610188578063f0f6ee2a146101f3578063f7440e161461020657600080fd5b806361ebbca8146101bf57806365c8efda1461016257806367fde9df146101cd5780636fc4fde7146101515780638129ef951461017457600080fd5b8063333aa2fc116100ff578063333aa2fc1461018857806347244b0d1461016257806348213e221461019e5780634ef935ca14610151578063502929ff146101ac57600080fd5b806302908ed31461013c5780630f98425014610151578063181233ee14610162578063193a0f62146101625780631ccf3c0c14610174575b600080fd5b61014f61014a366004610ec2565b610219565b005b61014f61015f366004610ec2565b50565b61014f610170366004610edb565b5050565b61014f61018236600461104f565b50505050565b61014f6101963660046110a0565b505050505050565b61014f61015f366004611176565b61014f6101ba366004610ec2565b61023a565b61014f61015f366004611286565b61014f6101db36600461148b565b61025a565b61014f6101ee366004611546565b6102a0565b61014f6102013660046115d6565b6102d1565b61014f61021436600461171b565b6103a2565b4381111561015f5760405163281f6f0d60e01b815260040160405180910390fd5b43811161015f5760405163c64743d560e01b815260040160405180910390fd5b60006102678888856103da565b90506102966040518060400160405280600b81526020016a52455155495245443a257360a81b815250826103e7565b5050505050505050565b60006102c885858885600001518588886020015189604001518a606001518b6080015161042c565b50505050505050565b6102db8682610584565b60008060208301516040516306e5639760e21b815260048101889052602481018790526044810183905260648101919091529091506000906001600160a01b03851690631b958e5c906084016020604051808303816000875af1158015610346573d6000803e3d6000fd5b505050506040513d601f19601f8201168201806040525081019061036a91906117e7565b905061039688888b866000015187602001518689604001518a606001518b608001518c60a0015161042c565b50505050505050505050565b6103ad868483610624565b60006001600160a01b0385166103c45781516103c6565b845b90506102c88787838787876020015161065f565b6303516c4c5b9392505050565b61017082826040516024016103fd929190611846565b60408051601f198184030181529190526020810180516001600160e01b03166309710a9d60e41b179052610a60565b61043a8a898989888861065f565b600080600061044a8b8d87610a81565b909350839250905080156104715760405163170fb50d60e01b815260040160405180910390fd5b505081516020830151604051630a8c7dad60e21b8152736fe756b9c61cf7e9f11d96740b096e51b64ebf1392632a31f6b4926104af92600401611868565b600060405180830381600087803b1580156104c957600080fd5b505af11580156104dd573d6000803e3d6000fd5b505050506000806104ef8b8d87610a81565b9150915060008c606001511180156105075750600181105b80610520575060408c0151158015906105205750845181105b1561053e5760405163e904550160e01b815260040160405180910390fd5b600061054a84846118a2565b90508881101561057457604051634c19cdaf60e11b81526004810182905260240160405180910390fd5b5050505050505050505050505050565b60408201511580156105995750606082015115155b80156105ad57508060400151826060015114155b156105cb576040516369443e5560e11b815260040160405180910390fd5b604082015115610170578060600151516000036105fb576040516308bf63cd60e01b815260040160405180910390fd5b8060200151816060015151146101705760405163024c78fd60e51b815260040160405180910390fd5b60408301511580159061063c57508181602001515114155b1561065a5760405163024c78fd60e51b815260040160405180910390fd5b505050565b600086516003811115610674576106746118bb565b036107005760208601516040516323b872dd60e01b81526001600160a01b038781166004830152868116602483015260448201869052909116906323b872dd906064016020604051808303816000875af11580156106d6573d6000803e3d6000fd5b505050506040513d601f19601f820116820180604052508101906106fa91906118d1565b50610196565b600186516003811115610715576107156118bb565b036108965760408601516107995760208601516040516323b872dd60e01b81526001600160a01b038781166004830152868116602483015260448201859052909116906323b872dd906064015b600060405180830381600087803b15801561077c57600080fd5b505af1158015610790573d6000803e3d6000fd5b50505050610196565b60005b81518160ff1610156106fa576107e68760400151838360ff16815181106107c5576107c56118f3565b602002602001015160200151848460ff1681518110610182576101826118f3565b86602001516001600160a01b03166323b872dd8787858560ff1681518110610810576108106118f3565b6020908102919091010151516040516001600160e01b031960e086901b1681526001600160a01b0393841660048201529290911660248301526044820152606401600060405180830381600087803b15801561086b57600080fd5b505af115801561087f573d6000803e3d6000fd5b50505050808061088e90611909565b91505061079c565b6002865160038111156108ab576108ab6118bb565b03610a47576040860151610911576020860151604051637921219560e11b81526001600160a01b0387811660048301528681166024830152604482018590526064820186905260a06084830152600060a48301529091169063f242432a9060c401610762565b60608060005b83518160ff1610156109d7576109618960400151858360ff1681518110610940576109406118f3565b602002602001015160200151868460ff1681518110610182576101826118f3565b838160ff1681518110610976576109766118f3565b602002602001015160000151838260ff1681518110610997576109976118f3565b6020026020010181815250506001828260ff16815181106109ba576109ba6118f3565b6020908102919091010152806109cf81611909565b915050610917565b5087602001516001600160a01b0316632eb2c2d6888885856040518563ffffffff1660e01b8152600401610a0e9493929190611963565b600060405180830381600087803b158015610a2857600080fd5b505af1158015610a3c573d6000803e3d6000fd5b505050505050610196565b604051639a9d6f4f60e01b815260040160405180910390fd5b80516a636f6e736f6c652e6c6f67602083016000808483855afa5050505050565b600080600184516003811115610a9957610a996118bb565b03610c265760008460600151118015610b2f5750602084015160608501516040516331a9108f60e11b815260048101919091526001600160a01b03878116921690636352211e90602401602060405180830381865afa158015610b00573d6000803e3d6000fd5b505050506040513d601f19601f82011682018060405250810190610b2491906119be565b6001600160a01b0316145b15610b3c57506001610c26565b604084015115610c265760005b83518160ff161015610c2457856001600160a01b031685602001516001600160a01b0316636352211e868460ff1681518110610b8757610b876118f3565b6020026020010151600001516040518263ffffffff1660e01b8152600401610bb191815260200190565b602060405180830381865afa158015610bce573d6000803e3d6000fd5b505050506040513d601f19601f82011682018060405250810190610bf291906119be565b6001600160a01b031603610c125781610c0a816119db565b925050610c24565b80610c1c81611909565b915050610b49565b505b610c31848685610c68565b9150600284516003811115610c4857610c486118bb565b148015610c585750604084015115155b15610c605750805b935093915050565b6000600384516003811115610c7f57610c7f6118bb565b03610c9557506001600160a01b038216316103e0565b600084516003811115610caa57610caa6118bb565b03610d275760208401516040516370a0823160e01b81526001600160a01b038581166004830152909116906370a08231906024015b602060405180830381865afa158015610cfc573d6000803e3d6000fd5b505050506040513d601f19601f82011682018060405250810190610d2091906117e7565b90506103e0565b600184516003811115610d3c57610d3c6118bb565b03610d755760208401516040516370a0823160e01b81526001600160a01b038581166004830152909116906370a0823190602401610cdf565b600284516003811115610d8a57610d8a6118bb565b03610a4757606084015115610dd75760208401516060850151604051627eeac760e11b81526001600160a01b038681166004830152602482019290925291169062fdd58e90604401610cdf565b6000805b83518160ff161015610eba57600086602001516001600160a01b031662fdd58e87878560ff1681518110610e1157610e116118f3565b6020908102919091010151516040516001600160e01b031960e085901b1681526001600160a01b0390921660048301526024820152604401602060405180830381865afa158015610e66573d6000803e3d6000fd5b505050506040513d601f19601f82011682018060405250810190610e8a91906117e7565b11610e96576000610e99565b60015b610ea69060ff16836119f4565b915080610eb281611909565b915050610ddb565b5090506103e0565b600060208284031215610ed457600080fd5b5035919050565b60008060408385031215610eee57600080fd5b50508035926020909101359150565b6001600160a01b038116811461015f57600080fd5b634e487b7160e01b600052604160045260246000fd5b604080519081016001600160401b0381118282101715610f4a57610f4a610f12565b60405290565b60405160a081016001600160401b0381118282101715610f4a57610f4a610f12565b60405160c081016001600160401b0381118282101715610f4a57610f4a610f12565b604051601f8201601f191681016001600160401b0381118282101715610fbc57610fbc610f12565b604052919050565b8035610fcf81610efd565b919050565b600060808284031215610fe657600080fd5b604051608081018181106001600160401b038211171561100857611008610f12565b60405290508082356004811061101d57600080fd5b8152602083013561102d81610efd565b8060208301525060408301356040820152606083013560608201525092915050565b600080600080610140858703121561106657600080fd5b843561107181610efd565b93506110808660208701610fd4565b925061108f8660a08701610fd4565b939692955092936101200135925050565b60008060008060008061018087890312156110ba57600080fd5b86356110c581610efd565b95506110d48860208901610fd4565b94506110e38860a08901610fd4565b93506101208701359250610140870135915061016087013590509295509295509295565b600082601f83011261111857600080fd5b81356001600160401b0381111561113157611131610f12565b611144601f8201601f1916602001610f94565b81815284602083860101111561115957600080fd5b816020850160208301376000918101602001919091529392505050565b60006020828403121561118857600080fd5b81356001600160401b038082111561119f57600080fd5b90830190602082860312156111b357600080fd5b6040516020810181811083821117156111ce576111ce610f12565b6040528235828111156111e057600080fd5b6111ec87828601611107565b82525095945050505050565b60006001600160401b0382111561121157611211610f12565b5060051b60200190565b600082601f83011261122c57600080fd5b8135602061124161123c836111f8565b610f94565b82815260059290921b8401810191818101908684111561126057600080fd5b8286015b8481101561127b5780358352918301918301611264565b509695505050505050565b60006020828403121561129857600080fd5b81356001600160401b038111156112ae57600080fd5b6112ba8482850161121b565b949350505050565b600082601f8301126112d357600080fd5b813560206112e361123c836111f8565b82815260059290921b8401810191818101908684111561130257600080fd5b8286015b8481101561127b5780356001600160401b03808211156113265760008081fd5b908801906040828b03601f19018113156113405760008081fd5b611348610f28565b8388013581529083013590828211156113615760008081fd5b61136f8c898487010161121b565b818901528652505050918301918301611306565b60006040828403121561139557600080fd5b61139d610f28565b905081356113aa81610efd565b815260208201356001600160401b038111156113c557600080fd5b6113d184828501611107565b60208301525092915050565b600060a082840312156113ef57600080fd5b6113f7610f50565b905061140282610fc4565b81526020820135602082015260408201356001600160401b038082111561142857600080fd5b611434858386016112c2565b6040840152606084013591508082111561144d57600080fd5b611459858386016112c2565b6060840152608084013591508082111561147257600080fd5b5061147f84828501611383565b60808301525092915050565b60008060008060008060006101a0888a0312156114a757600080fd5b87356114b281610efd565b965060208801356001600160401b03808211156114ce57600080fd5b6114da8b838c01611107565b975060408a013591506114ec82610efd565b8196506114fc8b60608c01610fd4565b955061150b8b60e08c01610fd4565b94506101608a013593506101808a013591508082111561152a57600080fd5b506115378a828b016113dd565b91505092959891949750929550565b600080600080600080610180878903121561156057600080fd5b863561156b81610efd565b9550602087013561157b81610efd565b945061158a8860408901610fd4565b93506115998860c08901610fd4565b925061014087013591506101608701356001600160401b038111156115bd57600080fd5b6115c989828a016113dd565b9150509295509295509295565b6000806000806000806000806101c0898b0312156115f357600080fd5b88359750602089013561160581610efd565b96506116148a60408b01610fd4565b95506116238a60c08b01610fd4565b94506101408901359350610160890135925061018089013561164481610efd565b91506101a08901356001600160401b038082111561166157600080fd5b908a019060c0828d03121561167557600080fd5b61167d610f72565b61168683610fc4565b815260208301356020820152604083013560408201526060830135828111156116ae57600080fd5b6116ba8e8286016112c2565b6060830152506080830135828111156116d257600080fd5b6116de8e8286016112c2565b60808301525060a0830135828111156116f657600080fd5b6117028e828601611383565b60a0830152508093505050509295985092959890939650565b600080600080600080610120878903121561173557600080fd5b61173f8888610fd4565b9550608087013561174f81610efd565b945060a087013561175f81610efd565b935060c0870135925060e087013591506101008701356001600160401b038082111561178a57600080fd5b908801906040828b03121561179e57600080fd5b6117a6610f28565b82356117b181610efd565b81526020830135828111156117c557600080fd5b6117d18c8286016112c2565b6020830152508093505050509295509295509295565b6000602082840312156117f957600080fd5b5051919050565b6000815180845260005b818110156118265760208185018101518683018201520161180a565b506000602082860101526020601f19601f83011685010191505092915050565b6040815260006118596040830185611800565b90508260208301529392505050565b6001600160a01b03831681526040602082018190526000906112ba90830184611800565b634e487b7160e01b600052601160045260246000fd5b818103818111156118b5576118b561188c565b92915050565b634e487b7160e01b600052602160045260246000fd5b6000602082840312156118e357600080fd5b815180151581146103e057600080fd5b634e487b7160e01b600052603260045260246000fd5b600060ff821660ff810361191f5761191f61188c565b60010192915050565b600081518084526020808501945080840160005b838110156119585781518752958201959082019060010161193c565b509495945050505050565b6001600160a01b0385811682528416602082015260a06040820181905260009061198f90830185611928565b82810360608401526119a18185611928565b838103608090940193909352505060008152602001949350505050565b6000602082840312156119d057600080fd5b81516103e081610efd565b6000600182016119ed576119ed61188c565b5060010190565b808201808211156118b5576118b561188c56fea26469706673582212200da76953e6044c82693ca202b9819a42e58cb242c2ed2b66dd3822d87255e15564736f6c63430008110033",
    "linkReferences": {}
  },
  "methodIdentifiers": {
    "bindLimitSwapFills(bytes32[])": "61ebbca8",
    "createSeaportListing(bytes32)": "6fc4fde7",
    "invertLimitSwapFills(bytes32,bytes32)": "193a0f62",
    "limitSwap(bytes32,address,(uint8,address,bytes32,uint256),(uint8,address,bytes32,uint256),uint256,uint256,address,(address,uint256,uint256,(uint256,bytes32[])[],(uint256,bytes32[])[],(address,bytes)))": "f0f6ee2a",
    "marketSwapExactInput(address,bytes,address,(uint8,address,bytes32,uint256),(uint8,address,bytes32,uint256),uint256,(address,uint256,(uint256,bytes32[])[],(uint256,bytes32[])[],(address,bytes)))": "67fde9df",
    "marketSwapExactOutput(address,address,(uint8,address,bytes32,uint256),(uint8,address,bytes32,uint256),uint256,(address,uint256,(uint256,bytes32[])[],(uint256,bytes32[])[],(address,bytes)))": "be330dbd",
    "maxRuns(bytes32,uint256)": "b4caf1cb",
    "requireBitNotUsed(uint256,uint256)": "181233ee",
    "requireBitUsed(uint256,uint256)": "47244b0d",
    "requireBlockMined(uint256)": "02908ed3",
    "requireBlockNotMined(uint256)": "502929ff",
    "requireBlocksElapsed(bytes32,uint256)": "65c8efda",
    "requireLimitSwapFilled(bytes32)": "4ef935ca",
    "requireLimitSwapOpen(bytes32)": "0f984250",
    "requirePriceDecrease(address,(uint8,address,bytes32,uint256),(uint8,address,bytes32,uint256),uint256,uint256,uint256)": "333aa2fc",
    "requirePriceIncrease(address,(uint8,address,bytes32,uint256),(uint8,address,bytes32,uint256),uint256,uint256,uint256)": "db5b273a",
    "requirePriceLowerBound(address,(uint8,address,bytes32,uint256),(uint8,address,bytes32,uint256),uint256)": "8129ef95",
    "requirePriceUpperBound(address,(uint8,address,bytes32,uint256),(uint8,address,bytes32,uint256),uint256)": "1ccf3c0c",
    "requireStake((bytes))": "48213e22",
    "transfer((uint8,address,bytes32,uint256),address,address,uint256,uint256,(address,(uint256,bytes32[])[]))": "f7440e16",
    "useBit(uint256,uint256)": "a9aa5f7e"
  },
  "id": 22
}