{
  "abi": [
    {
      "inputs": [],
      "name": "BlockMined",
      "type": "error"
    },
    {
      "inputs": [],
      "name": "BlockNotMined",
      "type": "error"
    },
    {
      "inputs": [],
      "name": "IdNotAllowed",
      "type": "error"
    },
    {
      "inputs": [],
      "name": "MerkleProofAndAmountMismatch",
      "type": "error"
    },
    {
      "inputs": [],
      "name": "MerkleProofsRequired",
      "type": "error"
    },
    {
      "inputs": [],
      "name": "NftIdAlreadyOwned",
      "type": "error"
    },
    {
      "inputs": [],
      "name": "NftIdNotReceived",
      "type": "error"
    },
    {
      "inputs": [
        {
          "internalType": "uint256",
          "name": "amountReceived",
          "type": "uint256"
        }
      ],
      "name": "NotEnoughTokenReceived",
      "type": "error"
    },
    {
      "inputs": [],
      "name": "UnsupportedTokenStandard",
      "type": "error"
    },
    {
      "inputs": [
        {
          "internalType": "bytes32[]",
          "name": "swapsIds",
          "type": "bytes32[]"
        }
      ],
      "name": "bindLimitSwapFills",
      "outputs": [],
      "stateMutability": "nonpayable",
      "type": "function"
    },
    {
      "inputs": [
        {
          "internalType": "bytes32",
          "name": "id",
          "type": "bytes32"
        }
      ],
      "name": "createSeaportListing",
      "outputs": [],
      "stateMutability": "nonpayable",
      "type": "function"
    },
    {
      "inputs": [
        {
          "internalType": "bytes32",
          "name": "swap0",
          "type": "bytes32"
        },
        {
          "internalType": "bytes32",
          "name": "swap1",
          "type": "bytes32"
        }
      ],
      "name": "invertLimitSwapFills",
      "outputs": [],
      "stateMutability": "nonpayable",
      "type": "function"
    },
    {
      "inputs": [
        {
          "internalType": "bytes32",
          "name": "id",
          "type": "bytes32"
        },
        {
          "internalType": "address",
          "name": "owner",
          "type": "address"
        },
        {
          "components": [
            {
              "internalType": "enum TokenStandard",
              "name": "standard",
              "type": "uint8"
            },
            {
              "internalType": "address",
              "name": "addr",
              "type": "address"
            },
            {
              "internalType": "bytes32",
              "name": "idsMerkleRoot",
              "type": "bytes32"
            },
            {
              "internalType": "uint256",
              "name": "id",
              "type": "uint256"
            }
          ],
          "internalType": "struct Token",
          "name": "tokenIn",
          "type": "tuple"
        },
        {
          "components": [
            {
              "internalType": "enum TokenStandard",
              "name": "standard",
              "type": "uint8"
            },
            {
              "internalType": "address",
              "name": "addr",
              "type": "address"
            },
            {
              "internalType": "bytes32",
              "name": "idsMerkleRoot",
              "type": "bytes32"
            },
            {
              "internalType": "uint256",
              "name": "id",
              "type": "uint256"
            }
          ],
          "internalType": "struct Token",
          "name": "tokenOut",
          "type": "tuple"
        },
        {
          "internalType": "uint256",
          "name": "tokenInAmount",
          "type": "uint256"
        },
        {
          "internalType": "uint256",
          "name": "basePrice",
          "type": "uint256"
        },
        {
          "internalType": "contract IPriceCurve",
          "name": "priceCurve",
          "type": "address"
        },
        {
          "components": [
            {
              "internalType": "address",
              "name": "recipient",
              "type": "address"
            },
            {
              "internalType": "uint256",
              "name": "tokenInAmount",
              "type": "uint256"
            },
            {
              "internalType": "uint256",
              "name": "tokenInId",
              "type": "uint256"
            },
            {
              "components": [
                {
                  "internalType": "uint256",
                  "name": "id",
                  "type": "uint256"
                },
                {
                  "internalType": "bytes32[]",
                  "name": "proof",
                  "type": "bytes32[]"
                }
              ],
              "internalType": "struct IdMerkleProof[]",
              "name": "tokenInIdMerkleProofs",
              "type": "tuple[]"
            },
            {
              "components": [
                {
                  "internalType": "uint256",
                  "name": "id",
                  "type": "uint256"
                },
                {
                  "internalType": "bytes32[]",
                  "name": "proof",
                  "type": "bytes32[]"
                }
              ],
              "internalType": "struct IdMerkleProof[]",
              "name": "tokenOutIdMerkleProofs",
              "type": "tuple[]"
            },
            {
              "components": [
                {
                  "internalType": "address",
                  "name": "targetContract",
                  "type": "address"
                },
                {
                  "internalType": "bytes",
                  "name": "data",
                  "type": "bytes"
                }
              ],
              "internalType": "struct Primatives01.Call",
              "name": "fillCall",
              "type": "tuple"
            }
          ],
          "internalType": "struct Primatives01.UnsignedLimitSwapData",
          "name": "data",
          "type": "tuple"
        }
      ],
      "name": "limitSwap",
      "outputs": [],
      "stateMutability": "nonpayable",
      "type": "function"
    },
    {
      "inputs": [
        {
          "components": [
            {
              "internalType": "address",
              "name": "targetContract",
              "type": "address"
            },
            {
              "internalType": "bytes",
              "name": "data",
              "type": "bytes"
            }
          ],
          "internalType": "struct Primatives01.Call",
          "name": "oraclePriceCall",
          "type": "tuple"
        },
        {
          "internalType": "address",
          "name": "owner",
          "type": "address"
        },
        {
          "components": [
            {
              "internalType": "enum TokenStandard",
              "name": "standard",
              "type": "uint8"
            },
            {
              "internalType": "address",
              "name": "addr",
              "type": "address"
            },
            {
              "internalType": "bytes32",
              "name": "idsMerkleRoot",
              "type": "bytes32"
            },
            {
              "internalType": "uint256",
              "name": "id",
              "type": "uint256"
            }
          ],
          "internalType": "struct Token",
          "name": "tokenIn",
          "type": "tuple"
        },
        {
          "components": [
            {
              "internalType": "enum TokenStandard",
              "name": "standard",
              "type": "uint8"
            },
            {
              "internalType": "address",
              "name": "addr",
              "type": "address"
            },
            {
              "internalType": "bytes32",
              "name": "idsMerkleRoot",
              "type": "bytes32"
            },
            {
              "internalType": "uint256",
              "name": "id",
              "type": "uint256"
            }
          ],
          "internalType": "struct Token",
          "name": "tokenOut",
          "type": "tuple"
        },
        {
          "internalType": "uint256",
          "name": "tokenInAmount",
          "type": "uint256"
        },
        {
          "components": [
            {
              "internalType": "address",
              "name": "recipient",
              "type": "address"
            },
            {
              "internalType": "uint256",
              "name": "tokenInId",
              "type": "uint256"
            },
            {
              "components": [
                {
                  "internalType": "uint256",
                  "name": "id",
                  "type": "uint256"
                },
                {
                  "internalType": "bytes32[]",
                  "name": "proof",
                  "type": "bytes32[]"
                }
              ],
              "internalType": "struct IdMerkleProof[]",
              "name": "tokenInIdMerkleProofs",
              "type": "tuple[]"
            },
            {
              "components": [
                {
                  "internalType": "uint256",
                  "name": "id",
                  "type": "uint256"
                },
                {
                  "internalType": "bytes32[]",
                  "name": "proof",
                  "type": "bytes32[]"
                }
              ],
              "internalType": "struct IdMerkleProof[]",
              "name": "tokenOutIdMerkleProofs",
              "type": "tuple[]"
            },
            {
              "components": [
                {
                  "internalType": "address",
                  "name": "targetContract",
                  "type": "address"
                },
                {
                  "internalType": "bytes",
                  "name": "data",
                  "type": "bytes"
                }
              ],
              "internalType": "struct Primatives01.Call",
              "name": "fillCall",
              "type": "tuple"
            }
          ],
          "internalType": "struct Primatives01.UnsignedMarketSwapData",
          "name": "data",
          "type": "tuple"
        }
      ],
      "name": "marketSwapExactInput",
      "outputs": [],
      "stateMutability": "nonpayable",
      "type": "function"
    },
    {
      "inputs": [
        {
          "internalType": "contract IPriceOracle",
          "name": "priceOracle",
          "type": "address"
        },
        {
          "internalType": "address",
          "name": "owner",
          "type": "address"
        },
        {
          "components": [
            {
              "internalType": "enum TokenStandard",
              "name": "standard",
              "type": "uint8"
            },
            {
              "internalType": "address",
              "name": "addr",
              "type": "address"
            },
            {
              "internalType": "bytes32",
              "name": "idsMerkleRoot",
              "type": "bytes32"
            },
            {
              "internalType": "uint256",
              "name": "id",
              "type": "uint256"
            }
          ],
          "internalType": "struct Token",
          "name": "tokenIn",
          "type": "tuple"
        },
        {
          "components": [
            {
              "internalType": "enum TokenStandard",
              "name": "standard",
              "type": "uint8"
            },
            {
              "internalType": "address",
              "name": "addr",
              "type": "address"
            },
            {
              "internalType": "bytes32",
              "name": "idsMerkleRoot",
              "type": "bytes32"
            },
            {
              "internalType": "uint256",
              "name": "id",
              "type": "uint256"
            }
          ],
          "internalType": "struct Token",
          "name": "tokenOut",
          "type": "tuple"
        },
        {
          "internalType": "uint256",
          "name": "tokenOutAmount",
          "type": "uint256"
        },
        {
          "components": [
            {
              "internalType": "address",
              "name": "recipient",
              "type": "address"
            },
            {
              "internalType": "uint256",
              "name": "tokenInId",
              "type": "uint256"
            },
            {
              "components": [
                {
                  "internalType": "uint256",
                  "name": "id",
                  "type": "uint256"
                },
                {
                  "internalType": "bytes32[]",
                  "name": "proof",
                  "type": "bytes32[]"
                }
              ],
              "internalType": "struct IdMerkleProof[]",
              "name": "tokenInIdMerkleProofs",
              "type": "tuple[]"
            },
            {
              "components": [
                {
                  "internalType": "uint256",
                  "name": "id",
                  "type": "uint256"
                },
                {
                  "internalType": "bytes32[]",
                  "name": "proof",
                  "type": "bytes32[]"
                }
              ],
              "internalType": "struct IdMerkleProof[]",
              "name": "tokenOutIdMerkleProofs",
              "type": "tuple[]"
            },
            {
              "components": [
                {
                  "internalType": "address",
                  "name": "targetContract",
                  "type": "address"
                },
                {
                  "internalType": "bytes",
                  "name": "data",
                  "type": "bytes"
                }
              ],
              "internalType": "struct Primatives01.Call",
              "name": "fillCall",
              "type": "tuple"
            }
          ],
          "internalType": "struct Primatives01.UnsignedMarketSwapData",
          "name": "data",
          "type": "tuple"
        }
      ],
      "name": "marketSwapExactOutput",
      "outputs": [],
      "stateMutability": "nonpayable",
      "type": "function"
    },
    {
      "inputs": [
        {
          "internalType": "bytes32",
          "name": "id",
          "type": "bytes32"
        },
        {
          "internalType": "uint256",
          "name": "numberOfRuns",
          "type": "uint256"
        }
      ],
      "name": "maxRuns",
      "outputs": [],
      "stateMutability": "nonpayable",
      "type": "function"
    },
    {
      "inputs": [
        {
          "internalType": "uint256",
          "name": "bitmapIndex",
          "type": "uint256"
        },
        {
          "internalType": "uint256",
          "name": "bit",
          "type": "uint256"
        }
      ],
      "name": "requireBitNotUsed",
      "outputs": [],
      "stateMutability": "nonpayable",
      "type": "function"
    },
    {
      "inputs": [
        {
          "internalType": "uint256",
          "name": "bitmapIndex",
          "type": "uint256"
        },
        {
          "internalType": "uint256",
          "name": "bit",
          "type": "uint256"
        }
      ],
      "name": "requireBitUsed",
      "outputs": [],
      "stateMutability": "nonpayable",
      "type": "function"
    },
    {
      "inputs": [
        {
          "internalType": "uint256",
          "name": "blockNumber",
          "type": "uint256"
        }
      ],
      "name": "requireBlockMined",
      "outputs": [],
      "stateMutability": "view",
      "type": "function"
    },
    {
      "inputs": [
        {
          "internalType": "uint256",
          "name": "blockNumber",
          "type": "uint256"
        }
      ],
      "name": "requireBlockNotMined",
      "outputs": [],
      "stateMutability": "view",
      "type": "function"
    },
    {
      "inputs": [
        {
          "internalType": "bytes32",
          "name": "id",
          "type": "bytes32"
        },
        {
          "internalType": "uint256",
          "name": "numberOfBlocksElapsed",
          "type": "uint256"
        }
      ],
      "name": "requireBlocksElapsed",
      "outputs": [],
      "stateMutability": "nonpayable",
      "type": "function"
    },
    {
      "inputs": [
        {
          "internalType": "bytes32",
          "name": "id",
          "type": "bytes32"
        }
      ],
      "name": "requireLimitSwapFilled",
      "outputs": [],
      "stateMutability": "nonpayable",
      "type": "function"
    },
    {
      "inputs": [
        {
          "internalType": "bytes32",
          "name": "id",
          "type": "bytes32"
        }
      ],
      "name": "requireLimitSwapOpen",
      "outputs": [],
      "stateMutability": "nonpayable",
      "type": "function"
    },
    {
      "inputs": [
        {
          "internalType": "contract IPriceDeltaOracle",
          "name": "priceDeltaOracle",
          "type": "address"
        },
        {
          "components": [
            {
              "internalType": "enum TokenStandard",
              "name": "standard",
              "type": "uint8"
            },
            {
              "internalType": "address",
              "name": "addr",
              "type": "address"
            },
            {
              "internalType": "bytes32",
              "name": "idsMerkleRoot",
              "type": "bytes32"
            },
            {
              "internalType": "uint256",
              "name": "id",
              "type": "uint256"
            }
          ],
          "internalType": "struct Token",
          "name": "tokenA",
          "type": "tuple"
        },
        {
          "components": [
            {
              "internalType": "enum TokenStandard",
              "name": "standard",
              "type": "uint8"
            },
            {
              "internalType": "address",
              "name": "addr",
              "type": "address"
            },
            {
              "internalType": "bytes32",
              "name": "idsMerkleRoot",
              "type": "bytes32"
            },
            {
              "internalType": "uint256",
              "name": "id",
              "type": "uint256"
            }
          ],
          "internalType": "struct Token",
          "name": "tokenB",
          "type": "tuple"
        },
        {
          "internalType": "uint256",
          "name": "startTime",
          "type": "uint256"
        },
        {
          "internalType": "uint256",
          "name": "duration",
          "type": "uint256"
        },
        {
          "internalType": "uint256",
          "name": "value",
          "type": "uint256"
        }
      ],
      "name": "requirePriceDecrease",
      "outputs": [],
      "stateMutability": "nonpayable",
      "type": "function"
    },
    {
      "inputs": [
        {
          "internalType": "contract IPriceDeltaOracle",
          "name": "priceDeltaOracle",
          "type": "address"
        },
        {
          "components": [
            {
              "internalType": "enum TokenStandard",
              "name": "standard",
              "type": "uint8"
            },
            {
              "internalType": "address",
              "name": "addr",
              "type": "address"
            },
            {
              "internalType": "bytes32",
              "name": "idsMerkleRoot",
              "type": "bytes32"
            },
            {
              "internalType": "uint256",
              "name": "id",
              "type": "uint256"
            }
          ],
          "internalType": "struct Token",
          "name": "tokenA",
          "type": "tuple"
        },
        {
          "components": [
            {
              "internalType": "enum TokenStandard",
              "name": "standard",
              "type": "uint8"
            },
            {
              "internalType": "address",
              "name": "addr",
              "type": "address"
            },
            {
              "internalType": "bytes32",
              "name": "idsMerkleRoot",
              "type": "bytes32"
            },
            {
              "internalType": "uint256",
              "name": "id",
              "type": "uint256"
            }
          ],
          "internalType": "struct Token",
          "name": "tokenB",
          "type": "tuple"
        },
        {
          "internalType": "uint256",
          "name": "startTime",
          "type": "uint256"
        },
        {
          "internalType": "uint256",
          "name": "duration",
          "type": "uint256"
        },
        {
          "internalType": "uint256",
          "name": "value",
          "type": "uint256"
        }
      ],
      "name": "requirePriceIncrease",
      "outputs": [],
      "stateMutability": "nonpayable",
      "type": "function"
    },
    {
      "inputs": [
        {
          "internalType": "contract IPriceOracle",
          "name": "priceOracle",
          "type": "address"
        },
        {
          "components": [
            {
              "internalType": "enum TokenStandard",
              "name": "standard",
              "type": "uint8"
            },
            {
              "internalType": "address",
              "name": "addr",
              "type": "address"
            },
            {
              "internalType": "bytes32",
              "name": "idsMerkleRoot",
              "type": "bytes32"
            },
            {
              "internalType": "uint256",
              "name": "id",
              "type": "uint256"
            }
          ],
          "internalType": "struct Token",
          "name": "tokenA",
          "type": "tuple"
        },
        {
          "components": [
            {
              "internalType": "enum TokenStandard",
              "name": "standard",
              "type": "uint8"
            },
            {
              "internalType": "address",
              "name": "addr",
              "type": "address"
            },
            {
              "internalType": "bytes32",
              "name": "idsMerkleRoot",
              "type": "bytes32"
            },
            {
              "internalType": "uint256",
              "name": "id",
              "type": "uint256"
            }
          ],
          "internalType": "struct Token",
          "name": "tokenB",
          "type": "tuple"
        },
        {
          "internalType": "uint256",
          "name": "value",
          "type": "uint256"
        }
      ],
      "name": "requirePriceLowerBound",
      "outputs": [],
      "stateMutability": "nonpayable",
      "type": "function"
    },
    {
      "inputs": [
        {
          "internalType": "contract IPriceOracle",
          "name": "priceOracle",
          "type": "address"
        },
        {
          "components": [
            {
              "internalType": "enum TokenStandard",
              "name": "standard",
              "type": "uint8"
            },
            {
              "internalType": "address",
              "name": "addr",
              "type": "address"
            },
            {
              "internalType": "bytes32",
              "name": "idsMerkleRoot",
              "type": "bytes32"
            },
            {
              "internalType": "uint256",
              "name": "id",
              "type": "uint256"
            }
          ],
          "internalType": "struct Token",
          "name": "tokenA",
          "type": "tuple"
        },
        {
          "components": [
            {
              "internalType": "enum TokenStandard",
              "name": "standard",
              "type": "uint8"
            },
            {
              "internalType": "address",
              "name": "addr",
              "type": "address"
            },
            {
              "internalType": "bytes32",
              "name": "idsMerkleRoot",
              "type": "bytes32"
            },
            {
              "internalType": "uint256",
              "name": "id",
              "type": "uint256"
            }
          ],
          "internalType": "struct Token",
          "name": "tokenB",
          "type": "tuple"
        },
        {
          "internalType": "uint256",
          "name": "value",
          "type": "uint256"
        }
      ],
      "name": "requirePriceUpperBound",
      "outputs": [],
      "stateMutability": "nonpayable",
      "type": "function"
    },
    {
      "inputs": [
        {
          "components": [
            {
              "internalType": "bytes",
              "name": "stakerSignature",
              "type": "bytes"
            }
          ],
          "internalType": "struct Primatives01.UnsignedStakeProofData",
          "name": "data",
          "type": "tuple"
        }
      ],
      "name": "requireStake",
      "outputs": [],
      "stateMutability": "nonpayable",
      "type": "function"
    },
    {
      "inputs": [
        {
          "components": [
            {
              "internalType": "enum TokenStandard",
              "name": "standard",
              "type": "uint8"
            },
            {
              "internalType": "address",
              "name": "addr",
              "type": "address"
            },
            {
              "internalType": "bytes32",
              "name": "idsMerkleRoot",
              "type": "bytes32"
            },
            {
              "internalType": "uint256",
              "name": "id",
              "type": "uint256"
            }
          ],
          "internalType": "struct Token",
          "name": "token",
          "type": "tuple"
        },
        {
          "internalType": "address",
          "name": "owner",
          "type": "address"
        },
        {
          "internalType": "address",
          "name": "recipient",
          "type": "address"
        },
        {
          "internalType": "uint256",
          "name": "amount",
          "type": "uint256"
        },
        {
          "internalType": "uint256",
          "name": "id",
          "type": "uint256"
        },
        {
          "components": [
            {
              "internalType": "address",
              "name": "recipient",
              "type": "address"
            },
            {
              "components": [
                {
                  "internalType": "uint256",
                  "name": "id",
                  "type": "uint256"
                },
                {
                  "internalType": "bytes32[]",
                  "name": "proof",
                  "type": "bytes32[]"
                }
              ],
              "internalType": "struct IdMerkleProof[]",
              "name": "idMerkleProofs",
              "type": "tuple[]"
            }
          ],
          "internalType": "struct Primatives01.UnsignedTransferData",
          "name": "data",
          "type": "tuple"
        }
      ],
      "name": "transfer",
      "outputs": [],
      "stateMutability": "nonpayable",
      "type": "function"
    },
    {
      "inputs": [
        {
          "internalType": "uint256",
          "name": "bitmapIndex",
          "type": "uint256"
        },
        {
          "internalType": "uint256",
          "name": "bit",
          "type": "uint256"
        }
      ],
      "name": "useBit",
      "outputs": [],
      "stateMutability": "nonpayable",
      "type": "function"
    }
  ],
  "bytecode": {
    "object": "0x608060405234801561001057600080fd5b50611a0d806100206000396000f3fe608060405234801561001057600080fd5b50600436106101375760003560e01c806361ebbca8116100b8578063a9aa5f7e1161007c578063a9aa5f7e14610162578063b4caf1cb14610162578063be330dbd146101e0578063db5b273a14610188578063f0f6ee2a146101f3578063f7440e161461020657600080fd5b806361ebbca8146101bf57806365c8efda146101625780636fc4fde7146101515780638129ef9514610174578063a06669bc146101cd57600080fd5b8063333aa2fc116100ff578063333aa2fc1461018857806347244b0d1461016257806348213e221461019e5780634ef935ca14610151578063502929ff146101ac57600080fd5b806302908ed31461013c5780630f98425014610151578063181233ee14610162578063193a0f62146101625780631ccf3c0c14610174575b600080fd5b61014f61014a366004610eb9565b610219565b005b61014f61015f366004610eb9565b50565b61014f610170366004610ed2565b5050565b61014f610182366004611046565b50505050565b61014f610196366004611097565b505050505050565b61014f61015f36600461116d565b61014f6101ba366004610eb9565b61023a565b61014f61015f36600461127d565b61014f6101db366004611482565b61025a565b61014f6101ee366004611529565b61029e565b61014f6102013660046115ac565b6102c6565b61014f6102143660046116f1565b610397565b4381111561015f5760405163281f6f0d60e01b815260040160405180910390fd5b43811161015f5760405163c64743d560e01b815260040160405180910390fd5b600061026687846103cf565b90506102956040518060400160405280600b81526020016a52455155495245443a257360a81b815250826103db565b50505050505050565b600061029585858885600001518588886020015189604001518a606001518b60800151610420565b6102d08682610578565b60008060208301516040516306e5639760e21b815260048101889052602481018790526044810183905260648101919091529091506000906001600160a01b03851690631b958e5c906084016020604051808303816000875af115801561033b573d6000803e3d6000fd5b505050506040513d601f19601f8201168201806040525081019061035f91906117bd565b905061038b88888b866000015187602001518689604001518a606001518b608001518c60a00151610420565b50505050505050505050565b6103a2868483610618565b60006001600160a01b0385166103b95781516103bb565b845b905061029587878387878760200151610653565b6303516c4c5b92915050565b61017082826040516024016103f192919061181c565b60408051601f198184030181529190526020810180516001600160e01b03166309710a9d60e41b179052610a54565b61042e8a8989898888610653565b600080600061043e8b8d87610a75565b909350839250905080156104655760405163170fb50d60e01b815260040160405180910390fd5b505081516020830151604051630a8c7dad60e21b8152736fe756b9c61cf7e9f11d96740b096e51b64ebf1392632a31f6b4926104a39260040161183e565b600060405180830381600087803b1580156104bd57600080fd5b505af11580156104d1573d6000803e3d6000fd5b505050506000806104e38b8d87610a75565b9150915060008c606001511180156104fb5750600181105b80610514575060408c0151158015906105145750845181105b156105325760405163e904550160e01b815260040160405180910390fd5b600061053e8484611878565b90508881101561056857604051634c19cdaf60e11b81526004810182905260240160405180910390fd5b5050505050505050505050505050565b604082015115801561058d5750606082015115155b80156105a157508060400151826060015114155b156105bf576040516369443e5560e11b815260040160405180910390fd5b604082015115610170578060600151516000036105ef576040516308bf63cd60e01b815260040160405180910390fd5b8060200151816060015151146101705760405163024c78fd60e51b815260040160405180910390fd5b60408301511580159061063057508181602001515114155b1561064e5760405163024c78fd60e51b815260040160405180910390fd5b505050565b6000865160038111156106685761066861188b565b036106f45760208601516040516323b872dd60e01b81526001600160a01b038781166004830152868116602483015260448201869052909116906323b872dd906064016020604051808303816000875af11580156106ca573d6000803e3d6000fd5b505050506040513d601f19601f820116820180604052508101906106ee91906118a1565b50610196565b6001865160038111156107095761070961188b565b0361088a57604086015161078d5760208601516040516323b872dd60e01b81526001600160a01b038781166004830152868116602483015260448201859052909116906323b872dd906064015b600060405180830381600087803b15801561077057600080fd5b505af1158015610784573d6000803e3d6000fd5b50505050610196565b60005b81518160ff1610156106ee576107da8760400151838360ff16815181106107b9576107b96118c3565b602002602001015160200151848460ff1681518110610182576101826118c3565b86602001516001600160a01b03166323b872dd8787858560ff1681518110610804576108046118c3565b6020908102919091010151516040516001600160e01b031960e086901b1681526001600160a01b0393841660048201529290911660248301526044820152606401600060405180830381600087803b15801561085f57600080fd5b505af1158015610873573d6000803e3d6000fd5b505050508080610882906118d9565b915050610790565b60028651600381111561089f5761089f61188b565b03610a3b576040860151610905576020860151604051637921219560e11b81526001600160a01b0387811660048301528681166024830152604482018590526064820186905260a06084830152600060a48301529091169063f242432a9060c401610756565b60608060005b83518160ff1610156109cb576109558960400151858360ff1681518110610934576109346118c3565b602002602001015160200151868460ff1681518110610182576101826118c3565b838160ff168151811061096a5761096a6118c3565b602002602001015160000151838260ff168151811061098b5761098b6118c3565b6020026020010181815250506001828260ff16815181106109ae576109ae6118c3565b6020908102919091010152806109c3816118d9565b91505061090b565b5087602001516001600160a01b0316632eb2c2d6888885856040518563ffffffff1660e01b8152600401610a029493929190611933565b600060405180830381600087803b158015610a1c57600080fd5b505af1158015610a30573d6000803e3d6000fd5b505050505050610196565b604051639a9d6f4f60e01b815260040160405180910390fd5b80516a636f6e736f6c652e6c6f67602083016000808483855afa5050505050565b600080600184516003811115610a8d57610a8d61188b565b03610c1a5760008460600151118015610b235750602084015160608501516040516331a9108f60e11b815260048101919091526001600160a01b03878116921690636352211e90602401602060405180830381865afa158015610af4573d6000803e3d6000fd5b505050506040513d601f19601f82011682018060405250810190610b18919061198e565b6001600160a01b0316145b15610b3057506001610c1a565b604084015115610c1a5760005b83518160ff161015610c1857856001600160a01b031685602001516001600160a01b0316636352211e868460ff1681518110610b7b57610b7b6118c3565b6020026020010151600001516040518263ffffffff1660e01b8152600401610ba591815260200190565b602060405180830381865afa158015610bc2573d6000803e3d6000fd5b505050506040513d601f19601f82011682018060405250810190610be6919061198e565b6001600160a01b031603610c065781610bfe816119ab565b925050610c18565b80610c10816118d9565b915050610b3d565b505b610c25848685610c5c565b9150600284516003811115610c3c57610c3c61188b565b148015610c4c5750604084015115155b15610c545750805b935093915050565b6000600384516003811115610c7357610c7361188b565b03610c8957506001600160a01b03821631610eb2565b600084516003811115610c9e57610c9e61188b565b03610d1b5760208401516040516370a0823160e01b81526001600160a01b038581166004830152909116906370a08231906024015b602060405180830381865afa158015610cf0573d6000803e3d6000fd5b505050506040513d601f19601f82011682018060405250810190610d1491906117bd565b9050610eb2565b600184516003811115610d3057610d3061188b565b03610d695760208401516040516370a0823160e01b81526001600160a01b038581166004830152909116906370a0823190602401610cd3565b600284516003811115610d7e57610d7e61188b565b03610a3b57606084015115610dcb5760208401516060850151604051627eeac760e11b81526001600160a01b038681166004830152602482019290925291169062fdd58e90604401610cd3565b6000805b83518160ff161015610eae57600086602001516001600160a01b031662fdd58e87878560ff1681518110610e0557610e056118c3565b6020908102919091010151516040516001600160e01b031960e085901b1681526001600160a01b0390921660048301526024820152604401602060405180830381865afa158015610e5a573d6000803e3d6000fd5b505050506040513d601f19601f82011682018060405250810190610e7e91906117bd565b11610e8a576000610e8d565b60015b610e9a9060ff16836119c4565b915080610ea6816118d9565b915050610dcf565b5090505b9392505050565b600060208284031215610ecb57600080fd5b5035919050565b60008060408385031215610ee557600080fd5b50508035926020909101359150565b6001600160a01b038116811461015f57600080fd5b634e487b7160e01b600052604160045260246000fd5b604080519081016001600160401b0381118282101715610f4157610f41610f09565b60405290565b60405160a081016001600160401b0381118282101715610f4157610f41610f09565b60405160c081016001600160401b0381118282101715610f4157610f41610f09565b604051601f8201601f191681016001600160401b0381118282101715610fb357610fb3610f09565b604052919050565b8035610fc681610ef4565b919050565b600060808284031215610fdd57600080fd5b604051608081018181106001600160401b0382111715610fff57610fff610f09565b60405290508082356004811061101457600080fd5b8152602083013561102481610ef4565b8060208301525060408301356040820152606083013560608201525092915050565b600080600080610140858703121561105d57600080fd5b843561106881610ef4565b93506110778660208701610fcb565b92506110868660a08701610fcb565b939692955092936101200135925050565b60008060008060008061018087890312156110b157600080fd5b86356110bc81610ef4565b95506110cb8860208901610fcb565b94506110da8860a08901610fcb565b93506101208701359250610140870135915061016087013590509295509295509295565b600082601f83011261110f57600080fd5b81356001600160401b0381111561112857611128610f09565b61113b601f8201601f1916602001610f8b565b81815284602083860101111561115057600080fd5b816020850160208301376000918101602001919091529392505050565b60006020828403121561117f57600080fd5b81356001600160401b038082111561119657600080fd5b90830190602082860312156111aa57600080fd5b6040516020810181811083821117156111c5576111c5610f09565b6040528235828111156111d757600080fd5b6111e3878286016110fe565b82525095945050505050565b60006001600160401b0382111561120857611208610f09565b5060051b60200190565b600082601f83011261122357600080fd5b81356020611238611233836111ef565b610f8b565b82815260059290921b8401810191818101908684111561125757600080fd5b8286015b84811015611272578035835291830191830161125b565b509695505050505050565b60006020828403121561128f57600080fd5b81356001600160401b038111156112a557600080fd5b6112b184828501611212565b949350505050565b6000604082840312156112cb57600080fd5b6112d3610f1f565b905081356112e081610ef4565b815260208201356001600160401b038111156112fb57600080fd5b611307848285016110fe565b60208301525092915050565b600082601f83011261132457600080fd5b81356020611334611233836111ef565b82815260059290921b8401810191818101908684111561135357600080fd5b8286015b848110156112725780356001600160401b03808211156113775760008081fd5b908801906040828b03601f19018113156113915760008081fd5b611399610f1f565b8388013581529083013590828211156113b25760008081fd5b6113c08c8984870101611212565b818901528652505050918301918301611357565b600060a082840312156113e657600080fd5b6113ee610f47565b90506113f982610fbb565b81526020820135602082015260408201356001600160401b038082111561141f57600080fd5b61142b85838601611313565b6040840152606084013591508082111561144457600080fd5b61145085838601611313565b6060840152608084013591508082111561146957600080fd5b50611476848285016112b9565b60808301525092915050565b600080600080600080610180878903121561149c57600080fd5b86356001600160401b03808211156114b357600080fd5b6114bf8a838b016112b9565b9750602089013591506114d182610ef4565b8196506114e18a60408b01610fcb565b95506114f08a60c08b01610fcb565b9450610140890135935061016089013591508082111561150f57600080fd5b5061151c89828a016113d4565b9150509295509295509295565b600080600080600080610180878903121561154357600080fd5b863561154e81610ef4565b9550602087013561155e81610ef4565b945061156d8860408901610fcb565b935061157c8860c08901610fcb565b925061014087013591506101608701356001600160401b038111156115a057600080fd5b61151c89828a016113d4565b6000806000806000806000806101c0898b0312156115c957600080fd5b8835975060208901356115db81610ef4565b96506115ea8a60408b01610fcb565b95506115f98a60c08b01610fcb565b94506101408901359350610160890135925061018089013561161a81610ef4565b91506101a08901356001600160401b038082111561163757600080fd5b908a019060c0828d03121561164b57600080fd5b611653610f69565b61165c83610fbb565b8152602083013560208201526040830135604082015260608301358281111561168457600080fd5b6116908e828601611313565b6060830152506080830135828111156116a857600080fd5b6116b48e828601611313565b60808301525060a0830135828111156116cc57600080fd5b6116d88e8286016112b9565b60a0830152508093505050509295985092959890939650565b600080600080600080610120878903121561170b57600080fd5b6117158888610fcb565b9550608087013561172581610ef4565b945060a087013561173581610ef4565b935060c0870135925060e087013591506101008701356001600160401b038082111561176057600080fd5b908801906040828b03121561177457600080fd5b61177c610f1f565b823561178781610ef4565b815260208301358281111561179b57600080fd5b6117a78c828601611313565b6020830152508093505050509295509295509295565b6000602082840312156117cf57600080fd5b5051919050565b6000815180845260005b818110156117fc576020818501810151868301820152016117e0565b506000602082860101526020601f19601f83011685010191505092915050565b60408152600061182f60408301856117d6565b90508260208301529392505050565b6001600160a01b03831681526040602082018190526000906112b1908301846117d6565b634e487b7160e01b600052601160045260246000fd5b818103818111156103d5576103d5611862565b634e487b7160e01b600052602160045260246000fd5b6000602082840312156118b357600080fd5b81518015158114610eb257600080fd5b634e487b7160e01b600052603260045260246000fd5b600060ff821660ff81036118ef576118ef611862565b60010192915050565b600081518084526020808501945080840160005b838110156119285781518752958201959082019060010161190c565b509495945050505050565b6001600160a01b0385811682528416602082015260a06040820181905260009061195f908301856118f8565b828103606084015261197181856118f8565b838103608090940193909352505060008152602001949350505050565b6000602082840312156119a057600080fd5b8151610eb281610ef4565b6000600182016119bd576119bd611862565b5060010190565b808201808211156103d5576103d561186256fea2646970667358221220ed064abb2d5c2d2ffb415ed7b7c1235757762f0d64017f486d387bc8da6d147b64736f6c63430008110033",
    "linkReferences": {}
  },
  "methodIdentifiers": {
    "bindLimitSwapFills(bytes32[])": "61ebbca8",
    "createSeaportListing(bytes32)": "6fc4fde7",
    "invertLimitSwapFills(bytes32,bytes32)": "193a0f62",
    "limitSwap(bytes32,address,(uint8,address,bytes32,uint256),(uint8,address,bytes32,uint256),uint256,uint256,address,(address,uint256,uint256,(uint256,bytes32[])[],(uint256,bytes32[])[],(address,bytes)))": "f0f6ee2a",
    "marketSwapExactInput((address,bytes),address,(uint8,address,bytes32,uint256),(uint8,address,bytes32,uint256),uint256,(address,uint256,(uint256,bytes32[])[],(uint256,bytes32[])[],(address,bytes)))": "a06669bc",
    "marketSwapExactOutput(address,address,(uint8,address,bytes32,uint256),(uint8,address,bytes32,uint256),uint256,(address,uint256,(uint256,bytes32[])[],(uint256,bytes32[])[],(address,bytes)))": "be330dbd",
    "maxRuns(bytes32,uint256)": "b4caf1cb",
    "requireBitNotUsed(uint256,uint256)": "181233ee",
    "requireBitUsed(uint256,uint256)": "47244b0d",
    "requireBlockMined(uint256)": "02908ed3",
    "requireBlockNotMined(uint256)": "502929ff",
    "requireBlocksElapsed(bytes32,uint256)": "65c8efda",
    "requireLimitSwapFilled(bytes32)": "4ef935ca",
    "requireLimitSwapOpen(bytes32)": "0f984250",
    "requirePriceDecrease(address,(uint8,address,bytes32,uint256),(uint8,address,bytes32,uint256),uint256,uint256,uint256)": "333aa2fc",
    "requirePriceIncrease(address,(uint8,address,bytes32,uint256),(uint8,address,bytes32,uint256),uint256,uint256,uint256)": "db5b273a",
    "requirePriceLowerBound(address,(uint8,address,bytes32,uint256),(uint8,address,bytes32,uint256),uint256)": "8129ef95",
    "requirePriceUpperBound(address,(uint8,address,bytes32,uint256),(uint8,address,bytes32,uint256),uint256)": "1ccf3c0c",
    "requireStake((bytes))": "48213e22",
    "transfer((uint8,address,bytes32,uint256),address,address,uint256,uint256,(address,(uint256,bytes32[])[]))": "f7440e16",
    "useBit(uint256,uint256)": "a9aa5f7e"
  },
  "id": 36
}