{
  "abi": [
    {
      "inputs": [],
      "name": "BlockMined",
      "type": "error"
    },
    {
      "inputs": [],
      "name": "BlockNotMined",
      "type": "error"
    },
    {
      "inputs": [],
      "name": "ERC1155IdNotProvided",
      "type": "error"
    },
    {
      "inputs": [],
      "name": "IdNotAllowed",
      "type": "error"
    },
    {
      "inputs": [],
      "name": "MerkleProofAndAmountMismatch",
      "type": "error"
    },
    {
      "inputs": [],
      "name": "MerkleProofsRequired",
      "type": "error"
    },
    {
      "inputs": [],
      "name": "NftIdAlreadyOwned",
      "type": "error"
    },
    {
      "inputs": [],
      "name": "NftIdNotReceived",
      "type": "error"
    },
    {
      "inputs": [
        {
          "internalType": "uint256",
          "name": "amountReceived",
          "type": "uint256"
        }
      ],
      "name": "NotEnoughTokenReceived",
      "type": "error"
    },
    {
      "inputs": [],
      "name": "OwnerHasNft",
      "type": "error"
    },
    {
      "inputs": [],
      "name": "UnsupportedTokenStandard",
      "type": "error"
    },
    {
      "inputs": [
        {
          "internalType": "bytes32[]",
          "name": "swapsIds",
          "type": "bytes32[]"
        }
      ],
      "name": "bindLimitSwapFills",
      "outputs": [],
      "stateMutability": "nonpayable",
      "type": "function"
    },
    {
      "inputs": [
        {
          "internalType": "bytes32",
          "name": "id",
          "type": "bytes32"
        }
      ],
      "name": "createSeaportListing",
      "outputs": [],
      "stateMutability": "nonpayable",
      "type": "function"
    },
    {
      "inputs": [
        {
          "internalType": "bytes32",
          "name": "swap0",
          "type": "bytes32"
        },
        {
          "internalType": "bytes32",
          "name": "swap1",
          "type": "bytes32"
        }
      ],
      "name": "invertLimitSwapFills",
      "outputs": [],
      "stateMutability": "nonpayable",
      "type": "function"
    },
    {
      "inputs": [
        {
          "internalType": "bytes32",
          "name": "id",
          "type": "bytes32"
        },
        {
          "internalType": "address",
          "name": "owner",
          "type": "address"
        },
        {
          "components": [
            {
              "internalType": "enum TokenHelper.TokenStandard",
              "name": "standard",
              "type": "uint8"
            },
            {
              "internalType": "address",
              "name": "addr",
              "type": "address"
            },
            {
              "internalType": "bytes32",
              "name": "idsMerkleRoot",
              "type": "bytes32"
            },
            {
              "internalType": "uint256",
              "name": "id",
              "type": "uint256"
            }
          ],
          "internalType": "struct TokenHelper.Token",
          "name": "tokenIn",
          "type": "tuple"
        },
        {
          "components": [
            {
              "internalType": "enum TokenHelper.TokenStandard",
              "name": "standard",
              "type": "uint8"
            },
            {
              "internalType": "address",
              "name": "addr",
              "type": "address"
            },
            {
              "internalType": "bytes32",
              "name": "idsMerkleRoot",
              "type": "bytes32"
            },
            {
              "internalType": "uint256",
              "name": "id",
              "type": "uint256"
            }
          ],
          "internalType": "struct TokenHelper.Token",
          "name": "tokenOut",
          "type": "tuple"
        },
        {
          "internalType": "uint256",
          "name": "tokenInAmount",
          "type": "uint256"
        },
        {
          "internalType": "uint256",
          "name": "basePrice",
          "type": "uint256"
        },
        {
          "internalType": "contract IPriceCurve",
          "name": "priceCurve",
          "type": "address"
        },
        {
          "components": [
            {
              "internalType": "address",
              "name": "recipient",
              "type": "address"
            },
            {
              "internalType": "uint256",
              "name": "tokenInAmount",
              "type": "uint256"
            },
            {
              "internalType": "uint256",
              "name": "tokenInId",
              "type": "uint256"
            },
            {
              "components": [
                {
                  "internalType": "uint256",
                  "name": "id",
                  "type": "uint256"
                },
                {
                  "internalType": "bytes32[]",
                  "name": "proof",
                  "type": "bytes32[]"
                }
              ],
              "internalType": "struct TokenHelper.IdMerkleProof[]",
              "name": "tokenInIdMerkleProofs",
              "type": "tuple[]"
            },
            {
              "components": [
                {
                  "internalType": "uint256",
                  "name": "id",
                  "type": "uint256"
                },
                {
                  "internalType": "bytes32[]",
                  "name": "proof",
                  "type": "bytes32[]"
                }
              ],
              "internalType": "struct TokenHelper.IdMerkleProof[]",
              "name": "tokenOutIdMerkleProofs",
              "type": "tuple[]"
            },
            {
              "components": [
                {
                  "internalType": "address",
                  "name": "targetContract",
                  "type": "address"
                },
                {
                  "internalType": "bytes",
                  "name": "data",
                  "type": "bytes"
                }
              ],
              "internalType": "struct Primatives01.Call",
              "name": "fillCall",
              "type": "tuple"
            }
          ],
          "internalType": "struct Primatives01.UnsignedLimitSwapData",
          "name": "data",
          "type": "tuple"
        }
      ],
      "name": "limitSwap",
      "outputs": [],
      "stateMutability": "nonpayable",
      "type": "function"
    },
    {
      "inputs": [
        {
          "internalType": "contract IPriceOracle",
          "name": "priceOracle",
          "type": "address"
        },
        {
          "internalType": "address",
          "name": "owner",
          "type": "address"
        },
        {
          "components": [
            {
              "internalType": "enum TokenHelper.TokenStandard",
              "name": "standard",
              "type": "uint8"
            },
            {
              "internalType": "address",
              "name": "addr",
              "type": "address"
            },
            {
              "internalType": "bytes32",
              "name": "idsMerkleRoot",
              "type": "bytes32"
            },
            {
              "internalType": "uint256",
              "name": "id",
              "type": "uint256"
            }
          ],
          "internalType": "struct TokenHelper.Token",
          "name": "tokenIn",
          "type": "tuple"
        },
        {
          "components": [
            {
              "internalType": "enum TokenHelper.TokenStandard",
              "name": "standard",
              "type": "uint8"
            },
            {
              "internalType": "address",
              "name": "addr",
              "type": "address"
            },
            {
              "internalType": "bytes32",
              "name": "idsMerkleRoot",
              "type": "bytes32"
            },
            {
              "internalType": "uint256",
              "name": "id",
              "type": "uint256"
            }
          ],
          "internalType": "struct TokenHelper.Token",
          "name": "tokenOut",
          "type": "tuple"
        },
        {
          "internalType": "uint256",
          "name": "tokenInAmount",
          "type": "uint256"
        },
        {
          "components": [
            {
              "internalType": "address",
              "name": "recipient",
              "type": "address"
            },
            {
              "internalType": "uint256",
              "name": "tokenInId",
              "type": "uint256"
            },
            {
              "components": [
                {
                  "internalType": "uint256",
                  "name": "id",
                  "type": "uint256"
                },
                {
                  "internalType": "bytes32[]",
                  "name": "proof",
                  "type": "bytes32[]"
                }
              ],
              "internalType": "struct TokenHelper.IdMerkleProof[]",
              "name": "tokenInIdMerkleProofs",
              "type": "tuple[]"
            },
            {
              "components": [
                {
                  "internalType": "uint256",
                  "name": "id",
                  "type": "uint256"
                },
                {
                  "internalType": "bytes32[]",
                  "name": "proof",
                  "type": "bytes32[]"
                }
              ],
              "internalType": "struct TokenHelper.IdMerkleProof[]",
              "name": "tokenOutIdMerkleProofs",
              "type": "tuple[]"
            },
            {
              "components": [
                {
                  "internalType": "address",
                  "name": "targetContract",
                  "type": "address"
                },
                {
                  "internalType": "bytes",
                  "name": "data",
                  "type": "bytes"
                }
              ],
              "internalType": "struct Primatives01.Call",
              "name": "fillCall",
              "type": "tuple"
            }
          ],
          "internalType": "struct Primatives01.UnsignedMarketSwapData",
          "name": "data",
          "type": "tuple"
        }
      ],
      "name": "marketSwapExactInput",
      "outputs": [],
      "stateMutability": "nonpayable",
      "type": "function"
    },
    {
      "inputs": [
        {
          "internalType": "contract IPriceOracle",
          "name": "priceOracle",
          "type": "address"
        },
        {
          "internalType": "address",
          "name": "owner",
          "type": "address"
        },
        {
          "components": [
            {
              "internalType": "enum TokenHelper.TokenStandard",
              "name": "standard",
              "type": "uint8"
            },
            {
              "internalType": "address",
              "name": "addr",
              "type": "address"
            },
            {
              "internalType": "bytes32",
              "name": "idsMerkleRoot",
              "type": "bytes32"
            },
            {
              "internalType": "uint256",
              "name": "id",
              "type": "uint256"
            }
          ],
          "internalType": "struct TokenHelper.Token",
          "name": "tokenIn",
          "type": "tuple"
        },
        {
          "components": [
            {
              "internalType": "enum TokenHelper.TokenStandard",
              "name": "standard",
              "type": "uint8"
            },
            {
              "internalType": "address",
              "name": "addr",
              "type": "address"
            },
            {
              "internalType": "bytes32",
              "name": "idsMerkleRoot",
              "type": "bytes32"
            },
            {
              "internalType": "uint256",
              "name": "id",
              "type": "uint256"
            }
          ],
          "internalType": "struct TokenHelper.Token",
          "name": "tokenOut",
          "type": "tuple"
        },
        {
          "internalType": "uint256",
          "name": "tokenOutAmount",
          "type": "uint256"
        },
        {
          "components": [
            {
              "internalType": "address",
              "name": "recipient",
              "type": "address"
            },
            {
              "internalType": "uint256",
              "name": "tokenInId",
              "type": "uint256"
            },
            {
              "components": [
                {
                  "internalType": "uint256",
                  "name": "id",
                  "type": "uint256"
                },
                {
                  "internalType": "bytes32[]",
                  "name": "proof",
                  "type": "bytes32[]"
                }
              ],
              "internalType": "struct TokenHelper.IdMerkleProof[]",
              "name": "tokenInIdMerkleProofs",
              "type": "tuple[]"
            },
            {
              "components": [
                {
                  "internalType": "uint256",
                  "name": "id",
                  "type": "uint256"
                },
                {
                  "internalType": "bytes32[]",
                  "name": "proof",
                  "type": "bytes32[]"
                }
              ],
              "internalType": "struct TokenHelper.IdMerkleProof[]",
              "name": "tokenOutIdMerkleProofs",
              "type": "tuple[]"
            },
            {
              "components": [
                {
                  "internalType": "address",
                  "name": "targetContract",
                  "type": "address"
                },
                {
                  "internalType": "bytes",
                  "name": "data",
                  "type": "bytes"
                }
              ],
              "internalType": "struct Primatives01.Call",
              "name": "fillCall",
              "type": "tuple"
            }
          ],
          "internalType": "struct Primatives01.UnsignedMarketSwapData",
          "name": "data",
          "type": "tuple"
        }
      ],
      "name": "marketSwapExactOutput",
      "outputs": [],
      "stateMutability": "nonpayable",
      "type": "function"
    },
    {
      "inputs": [
        {
          "internalType": "bytes32",
          "name": "id",
          "type": "bytes32"
        },
        {
          "internalType": "uint256",
          "name": "numberOfRuns",
          "type": "uint256"
        }
      ],
      "name": "maxRuns",
      "outputs": [],
      "stateMutability": "nonpayable",
      "type": "function"
    },
    {
      "inputs": [
        {
          "internalType": "uint256",
          "name": "bitmapIndex",
          "type": "uint256"
        },
        {
          "internalType": "uint256",
          "name": "bit",
          "type": "uint256"
        }
      ],
      "name": "requireBitNotUsed",
      "outputs": [],
      "stateMutability": "nonpayable",
      "type": "function"
    },
    {
      "inputs": [
        {
          "internalType": "uint256",
          "name": "bitmapIndex",
          "type": "uint256"
        },
        {
          "internalType": "uint256",
          "name": "bit",
          "type": "uint256"
        }
      ],
      "name": "requireBitUsed",
      "outputs": [],
      "stateMutability": "nonpayable",
      "type": "function"
    },
    {
      "inputs": [
        {
          "internalType": "uint256",
          "name": "blockNumber",
          "type": "uint256"
        }
      ],
      "name": "requireBlockMined",
      "outputs": [],
      "stateMutability": "view",
      "type": "function"
    },
    {
      "inputs": [
        {
          "internalType": "uint256",
          "name": "blockNumber",
          "type": "uint256"
        }
      ],
      "name": "requireBlockNotMined",
      "outputs": [],
      "stateMutability": "view",
      "type": "function"
    },
    {
      "inputs": [
        {
          "internalType": "bytes32",
          "name": "id",
          "type": "bytes32"
        },
        {
          "internalType": "uint256",
          "name": "numberOfBlocksElapsed",
          "type": "uint256"
        }
      ],
      "name": "requireBlocksElapsed",
      "outputs": [],
      "stateMutability": "nonpayable",
      "type": "function"
    },
    {
      "inputs": [
        {
          "internalType": "bytes32",
          "name": "id",
          "type": "bytes32"
        }
      ],
      "name": "requireLimitSwapFilled",
      "outputs": [],
      "stateMutability": "nonpayable",
      "type": "function"
    },
    {
      "inputs": [
        {
          "internalType": "bytes32",
          "name": "id",
          "type": "bytes32"
        }
      ],
      "name": "requireLimitSwapOpen",
      "outputs": [],
      "stateMutability": "nonpayable",
      "type": "function"
    },
    {
      "inputs": [
        {
          "internalType": "contract IPriceDeltaOracle",
          "name": "priceDeltaOracle",
          "type": "address"
        },
        {
          "components": [
            {
              "internalType": "enum TokenHelper.TokenStandard",
              "name": "standard",
              "type": "uint8"
            },
            {
              "internalType": "address",
              "name": "addr",
              "type": "address"
            },
            {
              "internalType": "bytes32",
              "name": "idsMerkleRoot",
              "type": "bytes32"
            },
            {
              "internalType": "uint256",
              "name": "id",
              "type": "uint256"
            }
          ],
          "internalType": "struct TokenHelper.Token",
          "name": "tokenA",
          "type": "tuple"
        },
        {
          "components": [
            {
              "internalType": "enum TokenHelper.TokenStandard",
              "name": "standard",
              "type": "uint8"
            },
            {
              "internalType": "address",
              "name": "addr",
              "type": "address"
            },
            {
              "internalType": "bytes32",
              "name": "idsMerkleRoot",
              "type": "bytes32"
            },
            {
              "internalType": "uint256",
              "name": "id",
              "type": "uint256"
            }
          ],
          "internalType": "struct TokenHelper.Token",
          "name": "tokenB",
          "type": "tuple"
        },
        {
          "internalType": "uint256",
          "name": "startTime",
          "type": "uint256"
        },
        {
          "internalType": "uint256",
          "name": "duration",
          "type": "uint256"
        },
        {
          "internalType": "uint256",
          "name": "value",
          "type": "uint256"
        }
      ],
      "name": "requirePriceDecrease",
      "outputs": [],
      "stateMutability": "nonpayable",
      "type": "function"
    },
    {
      "inputs": [
        {
          "internalType": "contract IPriceDeltaOracle",
          "name": "priceDeltaOracle",
          "type": "address"
        },
        {
          "components": [
            {
              "internalType": "enum TokenHelper.TokenStandard",
              "name": "standard",
              "type": "uint8"
            },
            {
              "internalType": "address",
              "name": "addr",
              "type": "address"
            },
            {
              "internalType": "bytes32",
              "name": "idsMerkleRoot",
              "type": "bytes32"
            },
            {
              "internalType": "uint256",
              "name": "id",
              "type": "uint256"
            }
          ],
          "internalType": "struct TokenHelper.Token",
          "name": "tokenA",
          "type": "tuple"
        },
        {
          "components": [
            {
              "internalType": "enum TokenHelper.TokenStandard",
              "name": "standard",
              "type": "uint8"
            },
            {
              "internalType": "address",
              "name": "addr",
              "type": "address"
            },
            {
              "internalType": "bytes32",
              "name": "idsMerkleRoot",
              "type": "bytes32"
            },
            {
              "internalType": "uint256",
              "name": "id",
              "type": "uint256"
            }
          ],
          "internalType": "struct TokenHelper.Token",
          "name": "tokenB",
          "type": "tuple"
        },
        {
          "internalType": "uint256",
          "name": "startTime",
          "type": "uint256"
        },
        {
          "internalType": "uint256",
          "name": "duration",
          "type": "uint256"
        },
        {
          "internalType": "uint256",
          "name": "value",
          "type": "uint256"
        }
      ],
      "name": "requirePriceIncrease",
      "outputs": [],
      "stateMutability": "nonpayable",
      "type": "function"
    },
    {
      "inputs": [
        {
          "internalType": "contract IPriceOracle",
          "name": "priceOracle",
          "type": "address"
        },
        {
          "components": [
            {
              "internalType": "enum TokenHelper.TokenStandard",
              "name": "standard",
              "type": "uint8"
            },
            {
              "internalType": "address",
              "name": "addr",
              "type": "address"
            },
            {
              "internalType": "bytes32",
              "name": "idsMerkleRoot",
              "type": "bytes32"
            },
            {
              "internalType": "uint256",
              "name": "id",
              "type": "uint256"
            }
          ],
          "internalType": "struct TokenHelper.Token",
          "name": "tokenA",
          "type": "tuple"
        },
        {
          "components": [
            {
              "internalType": "enum TokenHelper.TokenStandard",
              "name": "standard",
              "type": "uint8"
            },
            {
              "internalType": "address",
              "name": "addr",
              "type": "address"
            },
            {
              "internalType": "bytes32",
              "name": "idsMerkleRoot",
              "type": "bytes32"
            },
            {
              "internalType": "uint256",
              "name": "id",
              "type": "uint256"
            }
          ],
          "internalType": "struct TokenHelper.Token",
          "name": "tokenB",
          "type": "tuple"
        },
        {
          "internalType": "uint256",
          "name": "value",
          "type": "uint256"
        }
      ],
      "name": "requirePriceLowerBound",
      "outputs": [],
      "stateMutability": "nonpayable",
      "type": "function"
    },
    {
      "inputs": [
        {
          "internalType": "contract IPriceOracle",
          "name": "priceOracle",
          "type": "address"
        },
        {
          "components": [
            {
              "internalType": "enum TokenHelper.TokenStandard",
              "name": "standard",
              "type": "uint8"
            },
            {
              "internalType": "address",
              "name": "addr",
              "type": "address"
            },
            {
              "internalType": "bytes32",
              "name": "idsMerkleRoot",
              "type": "bytes32"
            },
            {
              "internalType": "uint256",
              "name": "id",
              "type": "uint256"
            }
          ],
          "internalType": "struct TokenHelper.Token",
          "name": "tokenA",
          "type": "tuple"
        },
        {
          "components": [
            {
              "internalType": "enum TokenHelper.TokenStandard",
              "name": "standard",
              "type": "uint8"
            },
            {
              "internalType": "address",
              "name": "addr",
              "type": "address"
            },
            {
              "internalType": "bytes32",
              "name": "idsMerkleRoot",
              "type": "bytes32"
            },
            {
              "internalType": "uint256",
              "name": "id",
              "type": "uint256"
            }
          ],
          "internalType": "struct TokenHelper.Token",
          "name": "tokenB",
          "type": "tuple"
        },
        {
          "internalType": "uint256",
          "name": "value",
          "type": "uint256"
        }
      ],
      "name": "requirePriceUpperBound",
      "outputs": [],
      "stateMutability": "nonpayable",
      "type": "function"
    },
    {
      "inputs": [
        {
          "components": [
            {
              "internalType": "bytes",
              "name": "stakerSignature",
              "type": "bytes"
            }
          ],
          "internalType": "struct Primatives01.UnsignedStakeProofData",
          "name": "data",
          "type": "tuple"
        }
      ],
      "name": "requireStake",
      "outputs": [],
      "stateMutability": "nonpayable",
      "type": "function"
    },
    {
      "inputs": [
        {
          "components": [
            {
              "internalType": "enum TokenHelper.TokenStandard",
              "name": "standard",
              "type": "uint8"
            },
            {
              "internalType": "address",
              "name": "addr",
              "type": "address"
            },
            {
              "internalType": "bytes32",
              "name": "idsMerkleRoot",
              "type": "bytes32"
            },
            {
              "internalType": "uint256",
              "name": "id",
              "type": "uint256"
            }
          ],
          "internalType": "struct TokenHelper.Token",
          "name": "token",
          "type": "tuple"
        },
        {
          "internalType": "address",
          "name": "owner",
          "type": "address"
        },
        {
          "internalType": "address",
          "name": "recipient",
          "type": "address"
        },
        {
          "internalType": "uint256",
          "name": "amount",
          "type": "uint256"
        },
        {
          "internalType": "uint256",
          "name": "id",
          "type": "uint256"
        },
        {
          "components": [
            {
              "internalType": "address",
              "name": "recipient",
              "type": "address"
            },
            {
              "components": [
                {
                  "internalType": "uint256",
                  "name": "id",
                  "type": "uint256"
                },
                {
                  "internalType": "bytes32[]",
                  "name": "proof",
                  "type": "bytes32[]"
                }
              ],
              "internalType": "struct TokenHelper.IdMerkleProof[]",
              "name": "idMerkleProofs",
              "type": "tuple[]"
            }
          ],
          "internalType": "struct Primatives01.UnsignedTransferData",
          "name": "data",
          "type": "tuple"
        }
      ],
      "name": "transfer",
      "outputs": [],
      "stateMutability": "nonpayable",
      "type": "function"
    },
    {
      "inputs": [
        {
          "internalType": "uint256",
          "name": "bitmapIndex",
          "type": "uint256"
        },
        {
          "internalType": "uint256",
          "name": "bit",
          "type": "uint256"
        }
      ],
      "name": "useBit",
      "outputs": [],
      "stateMutability": "nonpayable",
      "type": "function"
    }
  ],
  "bytecode": {
    "object": "0x608060405234801561001057600080fd5b50611664806100206000396000f3fe608060405234801561001057600080fd5b50600436106101375760003560e01c806361ebbca8116100b8578063a9aa5f7e1161007c578063a9aa5f7e14610162578063b4caf1cb14610162578063be330dbd146101e0578063db5b273a14610188578063f0f6ee2a146101f3578063f7440e161461020657600080fd5b806361ebbca8146101bf57806365c8efda146101625780636fc4fde7146101515780638129ef951461017457806389dee6ab146101cd57600080fd5b8063333aa2fc116100ff578063333aa2fc1461018857806347244b0d1461016257806348213e221461019e5780634ef935ca14610151578063502929ff146101ac57600080fd5b806302908ed31461013c5780630f98425014610151578063181233ee14610162578063193a0f62146101625780631ccf3c0c14610174575b600080fd5b61014f61014a366004610fc6565b610219565b005b61014f61015f366004610fc6565b50565b61014f610170366004610fdf565b5050565b61014f61018236600461102e565b50505050565b61014f61019636600461107f565b505050505050565b61014f61015f3660046110e6565b61014f6101ba366004610fc6565b61023a565b61014f610170366004611128565b61014f6101db36600461119d565b61025a565b61014f6101ee36600461119d565b6102ab565b61014f610201366004611235565b6102d4565b61014f6102143660046112e3565b6103c0565b4381111561015f5760405163281f6f0d60e01b815260040160405180910390fd5b43811161015f5760405163c64743d560e01b815260040160405180910390fd5b60006102a285858861026f6020870187611364565b8786602089013561028360408b018b611381565b61029060608d018d611381565b61029d60808f018f6113d2565b61040b565b50505050505050565b60006102a28585886102c06020870187611364565b8588602089013561028360408b018b611381565b6102de868261057e565b6000806040516306e5639760e21b8152600481018790526024810186905260448101829052602084013560648201529091506000906001600160a01b03851690631b958e5c906084016020604051808303816000875af1158015610346573d6000803e3d6000fd5b505050506040513d601f19601f8201168201806040525081019061036a91906113f2565b90506103b488888b61037f6020880188611364565b60208801358660408a013561039760608c018c611381565b6103a460808e018e611381565b8e8060a0019061029d91906113d2565b50505050505050505050565b6103cb868483610630565b60006001600160a01b0385166103ed576103e86020830183611364565b6103ef565b845b90506102a287878387876104066020890189611381565b610674565b61041a8c8b8b8b8a8a8a610674565b600080600061042b8d8f8888610b19565b909350839250905080156104525760405163170fb50d60e01b815260040160405180910390fd5b50736fe756b9c61cf7e9f11d96740b096e51b64ebf139050632a31f6b461047c6020850185611364565b610489602086018661140b565b6040518463ffffffff1660e01b81526004016104a793929190611452565b600060405180830381600087803b1580156104c157600080fd5b505af11580156104d5573d6000803e3d6000fd5b505050506000806104e88d8f8888610b19565b9150915060008e606001351180156105005750600181105b80610518575060408e01351580159061051857508481105b156105365760405163e904550160e01b815260040160405180910390fd5b600061054284846114a8565b90508a81101561056c57604051634c19cdaf60e11b81526004810182905260240160405180910390fd5b50505050505050505050505050505050565b60408201351580156105935750606082013515155b80156105a757508060400135826060013514155b156105c5576040516369443e5560e11b815260040160405180910390fd5b604082013515610170576105dc6060820182611381565b90506000036105fe576040516308bf63cd60e01b815260040160405180910390fd5b60208101356106106060830183611381565b9050146101705760405163024c78fd60e51b815260040160405180910390fd5b60408301351580159061065157508161064c6020830183611381565b905014155b1561066f5760405163024c78fd60e51b815260040160405180910390fd5b505050565b600061068360208901896114d7565b6003811115610694576106946114c1565b0361072c576106a96040880160208901611364565b6040516323b872dd60e01b81526001600160a01b03888116600483015287811660248301526044820187905291909116906323b872dd906064016020604051808303816000875af1158015610702573d6000803e3d6000fd5b505050506040513d601f19601f8201168201806040525081019061072691906114f8565b506102a2565b600161073b60208901896114d7565b600381111561074c5761074c6114c1565b036109105760408701356107dc5761076a6040880160208901611364565b6040516323b872dd60e01b81526001600160a01b03888116600483015287811660248301526044820186905291909116906323b872dd906064015b600060405180830381600087803b1580156107bf57600080fd5b505af11580156107d3573d6000803e3d6000fd5b505050506102a2565b60005b60ff81168211156107265761084e886040013584848460ff168181106108075761080761151a565b905060200281019061081991906113d2565b610827906020810190611381565b86868660ff1681811061083c5761083c61151a565b905060200281019061018291906113d2565b61085e6040890160208a01611364565b6001600160a01b03166323b872dd888886868660ff168181106108835761088361151a565b905060200281019061089591906113d2565b60405160e085901b6001600160e01b03191681526001600160a01b039384166004820152929091166024830152356044820152606401600060405180830381600087803b1580156108e557600080fd5b505af11580156108f9573d6000803e3d6000fd5b50505050808061090890611530565b9150506107df565b600261091f60208901896114d7565b6003811115610930576109306114c1565b03610b005760408701356109a25761094e6040880160208901611364565b604051637921219560e11b81526001600160a01b0388811660048301528781166024830152604482018690526064820187905260a06084830152600060a4830152919091169063f242432a9060c4016107a5565b60608060005b60ff8116841115610a8557610a058a6040013586868460ff168181106109d0576109d061151a565b90506020028101906109e291906113d2565b6109f0906020810190611381565b88888660ff1681811061083c5761083c61151a565b84848260ff16818110610a1a57610a1a61151a565b9050602002810190610a2c91906113d2565b60000135838260ff1681518110610a4557610a4561151a565b6020026020010181815250506001828260ff1681518110610a6857610a6861151a565b602090810291909101015280610a7d81611530565b9150506109a8565b50610a9660408a0160208b01611364565b6001600160a01b0316632eb2c2d6898985856040518563ffffffff1660e01b8152600401610ac7949392919061158a565b600060405180830381600087803b158015610ae157600080fd5b505af1158015610af5573d6000803e3d6000fd5b5050505050506102a2565b604051639a9d6f4f60e01b815260040160405180910390fd5b6000806001610b2b60208701876114d7565b6003811115610b3c57610b3c6114c1565b03610cea5760008560600135118015610be357506001600160a01b038616610b6a6040870160208801611364565b6040516331a9108f60e11b8152606088013560048201526001600160a01b039190911690636352211e90602401602060405180830381865afa158015610bb4573d6000803e3d6000fd5b505050506040513d601f19601f82011682018060405250810190610bd891906115e5565b6001600160a01b0316145b15610bf057506001610cea565b604085013515610cea5760005b60ff8116841115610ce8576001600160a01b038716610c226040880160208901611364565b6001600160a01b0316636352211e87878560ff16818110610c4557610c4561151a565b9050602002810190610c5791906113d2565b60405160e083901b6001600160e01b031916815290356004820152602401602060405180830381865afa158015610c92573d6000803e3d6000fd5b505050506040513d601f19601f82011682018060405250810190610cb691906115e5565b6001600160a01b031603610cd65781610cce81611602565b925050610ce8565b80610ce081611530565b915050610bfd565b505b610cf685878686610d39565b91506002610d0760208701876114d7565b6003811115610d1857610d186114c1565b148015610d285750604085013515155b15610d305750805b94509492505050565b60006003610d4a60208701876114d7565b6003811115610d5b57610d5b6114c1565b03610d7157506001600160a01b03831631610fbe565b6000610d8060208701876114d7565b6003811115610d9157610d916114c1565b03610e1a57610da66040860160208701611364565b6040516370a0823160e01b81526001600160a01b03868116600483015291909116906370a08231906024015b602060405180830381865afa158015610def573d6000803e3d6000fd5b505050506040513d601f19601f82011682018060405250810190610e1391906113f2565b9050610fbe565b6001610e2960208701876114d7565b6003811115610e3a57610e3a6114c1565b03610e4f57610da66040860160208701611364565b6002610e5e60208701876114d7565b6003811115610e6f57610e6f6114c1565b03610b0057606085013515610ec657610e8e6040860160208701611364565b604051627eeac760e11b81526001600160a01b03868116600483015260608801356024830152919091169062fdd58e90604401610dd2565b6000805b60ff8116841115610fba576000610ee76040890160208a01611364565b6001600160a01b031662fdd58e8888888660ff16818110610f0a57610f0a61151a565b9050602002810190610f1c91906113d2565b60405160e084901b6001600160e01b03191681526001600160a01b039092166004830152356024820152604401602060405180830381865afa158015610f66573d6000803e3d6000fd5b505050506040513d601f19601f82011682018060405250810190610f8a91906113f2565b11610f96576000610f99565b60015b610fa69060ff168361161b565b915080610fb281611530565b915050610eca565b5090505b949350505050565b600060208284031215610fd857600080fd5b5035919050565b60008060408385031215610ff257600080fd5b50508035926020909101359150565b6001600160a01b038116811461015f57600080fd5b60006080828403121561102857600080fd5b50919050565b600080600080610140858703121561104557600080fd5b843561105081611001565b935061105f8660208701611016565b925061106e8660a08701611016565b939692955092936101200135925050565b600080600080600080610180878903121561109957600080fd5b86356110a481611001565b95506110b38860208901611016565b94506110c28860a08901611016565b93506101208701359250610140870135915061016087013590509295509295509295565b6000602082840312156110f857600080fd5b813567ffffffffffffffff81111561110f57600080fd5b82016020818503121561112157600080fd5b9392505050565b6000806020838503121561113b57600080fd5b823567ffffffffffffffff8082111561115357600080fd5b818501915085601f83011261116757600080fd5b81358181111561117657600080fd5b8660208260051b850101111561118b57600080fd5b60209290920196919550909350505050565b60008060008060008061018087890312156111b757600080fd5b86356111c281611001565b955060208701356111d281611001565b94506111e18860408901611016565b93506111f08860c08901611016565b9250610140870135915061016087013567ffffffffffffffff81111561121557600080fd5b870160a0818a03121561122757600080fd5b809150509295509295509295565b6000806000806000806000806101c0898b03121561125257600080fd5b88359750602089013561126481611001565b96506112738a60408b01611016565b95506112828a60c08b01611016565b9450610140890135935061016089013592506101808901356112a381611001565b91506101a089013567ffffffffffffffff8111156112c057600080fd5b890160c0818c0312156112d257600080fd5b809150509295985092959890939650565b60008060008060008061012087890312156112fd57600080fd5b6113078888611016565b9550608087013561131781611001565b945060a087013561132781611001565b935060c0870135925060e0870135915061010087013567ffffffffffffffff81111561135257600080fd5b87016040818a03121561122757600080fd5b60006020828403121561137657600080fd5b813561112181611001565b6000808335601e1984360301811261139857600080fd5b83018035915067ffffffffffffffff8211156113b357600080fd5b6020019150600581901b36038213156113cb57600080fd5b9250929050565b60008235603e198336030181126113e857600080fd5b9190910192915050565b60006020828403121561140457600080fd5b5051919050565b6000808335601e1984360301811261142257600080fd5b83018035915067ffffffffffffffff82111561143d57600080fd5b6020019150368190038213156113cb57600080fd5b6001600160a01b03841681526040602082018190528101829052818360608301376000818301606090810191909152601f909201601f1916010192915050565b634e487b7160e01b600052601160045260246000fd5b818103818111156114bb576114bb611492565b92915050565b634e487b7160e01b600052602160045260246000fd5b6000602082840312156114e957600080fd5b81356004811061112157600080fd5b60006020828403121561150a57600080fd5b8151801515811461112157600080fd5b634e487b7160e01b600052603260045260246000fd5b600060ff821660ff810361154657611546611492565b60010192915050565b600081518084526020808501945080840160005b8381101561157f57815187529582019590820190600101611563565b509495945050505050565b6001600160a01b0385811682528416602082015260a0604082018190526000906115b69083018561154f565b82810360608401526115c8818561154f565b838103608090940193909352505060008152602001949350505050565b6000602082840312156115f757600080fd5b815161112181611001565b60006001820161161457611614611492565b5060010190565b808201808211156114bb576114bb61149256fea264697066735822122045e145c16dea8199dfc8bfab584bcad5066bffebccb47f1125d0c852049fe4bd64736f6c63430008110033",
    "linkReferences": {}
  },
  "methodIdentifiers": {
    "bindLimitSwapFills(bytes32[])": "61ebbca8",
    "createSeaportListing(bytes32)": "6fc4fde7",
    "invertLimitSwapFills(bytes32,bytes32)": "193a0f62",
    "limitSwap(bytes32,address,(uint8,address,bytes32,uint256),(uint8,address,bytes32,uint256),uint256,uint256,address,(address,uint256,uint256,(uint256,bytes32[])[],(uint256,bytes32[])[],(address,bytes)))": "f0f6ee2a",
    "marketSwapExactInput(address,address,(uint8,address,bytes32,uint256),(uint8,address,bytes32,uint256),uint256,(address,uint256,(uint256,bytes32[])[],(uint256,bytes32[])[],(address,bytes)))": "89dee6ab",
    "marketSwapExactOutput(address,address,(uint8,address,bytes32,uint256),(uint8,address,bytes32,uint256),uint256,(address,uint256,(uint256,bytes32[])[],(uint256,bytes32[])[],(address,bytes)))": "be330dbd",
    "maxRuns(bytes32,uint256)": "b4caf1cb",
    "requireBitNotUsed(uint256,uint256)": "181233ee",
    "requireBitUsed(uint256,uint256)": "47244b0d",
    "requireBlockMined(uint256)": "02908ed3",
    "requireBlockNotMined(uint256)": "502929ff",
    "requireBlocksElapsed(bytes32,uint256)": "65c8efda",
    "requireLimitSwapFilled(bytes32)": "4ef935ca",
    "requireLimitSwapOpen(bytes32)": "0f984250",
    "requirePriceDecrease(address,(uint8,address,bytes32,uint256),(uint8,address,bytes32,uint256),uint256,uint256,uint256)": "333aa2fc",
    "requirePriceIncrease(address,(uint8,address,bytes32,uint256),(uint8,address,bytes32,uint256),uint256,uint256,uint256)": "db5b273a",
    "requirePriceLowerBound(address,(uint8,address,bytes32,uint256),(uint8,address,bytes32,uint256),uint256)": "8129ef95",
    "requirePriceUpperBound(address,(uint8,address,bytes32,uint256),(uint8,address,bytes32,uint256),uint256)": "1ccf3c0c",
    "requireStake((bytes))": "48213e22",
    "transfer((uint8,address,bytes32,uint256),address,address,uint256,uint256,(address,(uint256,bytes32[])[]))": "f7440e16",
    "useBit(uint256,uint256)": "a9aa5f7e"
  },
  "id": 22
}