{
  "abi": [
    {
      "inputs": [],
      "name": "BadOrderIndex",
      "type": "error"
    },
    {
      "inputs": [
        {
          "internalType": "uint256",
          "name": "primitiveIndex",
          "type": "uint256"
        }
      ],
      "name": "BadUnsignedCallForPrimitive",
      "type": "error"
    },
    {
      "inputs": [
        {
          "components": [
            {
              "internalType": "address",
              "name": "primitiveTarget",
              "type": "address"
            },
            {
              "components": [
                {
                  "components": [
                    {
                      "internalType": "bytes",
                      "name": "data",
                      "type": "bytes"
                    },
                    {
                      "internalType": "bool",
                      "name": "requiresUnsignedCall",
                      "type": "bool"
                    }
                  ],
                  "internalType": "struct StrategyTarget01.Primitive[]",
                  "name": "primitives",
                  "type": "tuple[]"
                }
              ],
              "internalType": "struct StrategyTarget01.Order[]",
              "name": "orders",
              "type": "tuple[]"
            },
            {
              "components": [
                {
                  "internalType": "address",
                  "name": "targetContract",
                  "type": "address"
                },
                {
                  "internalType": "bytes",
                  "name": "data",
                  "type": "bytes"
                }
              ],
              "internalType": "struct StrategyTarget01.Call[]",
              "name": "beforeCalls",
              "type": "tuple[]"
            },
            {
              "components": [
                {
                  "internalType": "address",
                  "name": "targetContract",
                  "type": "address"
                },
                {
                  "internalType": "bytes",
                  "name": "data",
                  "type": "bytes"
                }
              ],
              "internalType": "struct StrategyTarget01.Call[]",
              "name": "afterCalls",
              "type": "tuple[]"
            }
          ],
          "internalType": "struct StrategyTarget01.Strategy",
          "name": "strategy",
          "type": "tuple"
        },
        {
          "internalType": "uint8",
          "name": "orderIndex",
          "type": "uint8"
        },
        {
          "internalType": "bytes[]",
          "name": "unsignedCalls",
          "type": "bytes[]"
        }
      ],
      "name": "execute",
      "outputs": [],
      "stateMutability": "nonpayable",
      "type": "function"
    }
  ],
  "bytecode": {
    "object": "0x608060405234801561001057600080fd5b506106a7806100206000396000f3fe608060405234801561001057600080fd5b506004361061002a5760003560e01c8062b530561461002f575b600080fd5b61004261003d36600461030b565b610044565b005b61005160208501856103c2565b90508360ff1610610075576040516358571deb60e01b815260040160405180910390fd5b61008a61008560408601866103c2565b610283565b6000805b61009b60208701876103c2565b8660ff168181106100ae576100ae610413565b90506020028101906100c09190610429565b6100ca90806103c2565b90508160ff16101561026b57366100e460208801886103c2565b8760ff168181106100f7576100f7610413565b90506020028101906101099190610429565b61011390806103c2565b8360ff1681811061012657610126610413565b90506020028101906101389190610449565b9050606061014c604083016020840161045f565b156101e25736600087878760ff1681811061016957610169610413565b905060200281019061017b9190610488565b909250905060008190036101ab57604051631367d5b760e21b815260ff8616600482015260240160405180910390fd5b6101b58480610488565b83836040516020016101ca94939291906104cf565b60405160208183030381529060405292505050610224565b6101ec8280610488565b8080601f0160208091040260200160405190810160405280939291908181526020018383808284376000920191909152509293505050505b60408051808201909152610256908061024060208c018c61050d565b6001600160a01b031681526020018390526102e0565b5050808061026390610528565b91505061008e565b5061027c61008560608701876103c2565b5050505050565b60005b60ff81168211156102db576102c983838360ff168181106102a9576102a9610413565b90506020028101906102bb9190610449565b6102c4906105c5565b6102e0565b806102d381610528565b915050610286565b505050565b80516020808301518051909160009182918401855af480610305573d6000803e3d6000fd5b50505050565b6000806000806060858703121561032157600080fd5b843567ffffffffffffffff8082111561033957600080fd5b908601906080828903121561034d57600080fd5b90945060208601359060ff8216821461036557600080fd5b9093506040860135908082111561037b57600080fd5b818701915087601f83011261038f57600080fd5b81358181111561039e57600080fd5b8860208260051b85010111156103b357600080fd5b95989497505060200194505050565b6000808335601e198436030181126103d957600080fd5b83018035915067ffffffffffffffff8211156103f457600080fd5b6020019150600581901b360382131561040c57600080fd5b9250929050565b634e487b7160e01b600052603260045260246000fd5b60008235601e1983360301811261043f57600080fd5b9190910192915050565b60008235603e1983360301811261043f57600080fd5b60006020828403121561047157600080fd5b8135801515811461048157600080fd5b9392505050565b6000808335601e1984360301811261049f57600080fd5b83018035915067ffffffffffffffff8211156104ba57600080fd5b60200191503681900382131561040c57600080fd5b8385823760008482016000815283858237600093019283525090949350505050565b80356001600160a01b038116811461050857600080fd5b919050565b60006020828403121561051f57600080fd5b610481826104f1565b600060ff821660ff810361054c57634e487b7160e01b600052601160045260246000fd5b60010192915050565b634e487b7160e01b600052604160045260246000fd5b6040805190810167ffffffffffffffff8111828210171561058e5761058e610555565b60405290565b604051601f8201601f1916810167ffffffffffffffff811182821017156105bd576105bd610555565b604052919050565b6000604082360312156105d757600080fd5b6105df61056b565b6105e8836104f1565b815260208084013567ffffffffffffffff8082111561060657600080fd5b9085019036601f83011261061957600080fd5b81358181111561062b5761062b610555565b61063d601f8201601f19168501610594565b9150808252368482850101111561065357600080fd5b8084840185840137600090820184015291830191909152509291505056fea26469706673582212207eec1817067f0b076e7b02ff1093f7ff93352c9e08ecdd9359d7660d432dc59064736f6c63430008110033",
    "linkReferences": {}
  },
  "methodIdentifiers": {
    "execute((address,((bytes,bool)[])[],(address,bytes)[],(address,bytes)[]),uint8,bytes[])": "00b53056"
  },
  "id": 43
}