{
  "abi": [
    {
      "inputs": [
        {
          "internalType": "contract IERC1155",
          "name": "erc1155Out",
          "type": "address"
        },
        {
          "internalType": "uint256",
          "name": "id",
          "type": "uint256"
        },
        {
          "internalType": "uint256",
          "name": "amount",
          "type": "uint256"
        },
        {
          "internalType": "address",
          "name": "account",
          "type": "address"
        }
      ],
      "name": "fulfillERC1155OutSwap",
      "outputs": [],
      "stateMutability": "payable",
      "type": "function"
    },
    {
      "inputs": [
        {
          "internalType": "uint256",
          "name": "ethOutAmount",
          "type": "uint256"
        },
        {
          "internalType": "address",
          "name": "account",
          "type": "address"
        }
      ],
      "name": "fulfillEthOutSwap",
      "outputs": [],
      "stateMutability": "nonpayable",
      "type": "function"
    },
    {
      "inputs": [
        {
          "internalType": "contract IERC721",
          "name": "nftOut",
          "type": "address"
        },
        {
          "internalType": "uint256",
          "name": "nftID",
          "type": "uint256"
        },
        {
          "internalType": "address",
          "name": "account",
          "type": "address"
        }
      ],
      "name": "fulfillNftOutSwap",
      "outputs": [],
      "stateMutability": "payable",
      "type": "function"
    },
    {
      "inputs": [
        {
          "internalType": "contract IERC721",
          "name": "nftOut",
          "type": "address"
        },
        {
          "internalType": "uint256",
          "name": "nftID",
          "type": "uint256"
        },
        {
          "internalType": "address",
          "name": "account",
          "type": "address"
        },
        {
          "internalType": "address",
          "name": "to",
          "type": "address"
        },
        {
          "internalType": "bytes",
          "name": "data",
          "type": "bytes"
        }
      ],
      "name": "fulfillNftOutSwapAndCall",
      "outputs": [],
      "stateMutability": "payable",
      "type": "function"
    },
    {
      "inputs": [],
      "name": "fulfillNothing",
      "outputs": [],
      "stateMutability": "payable",
      "type": "function"
    },
    {
      "inputs": [
        {
          "internalType": "contract IERC20",
          "name": "tokenOut",
          "type": "address"
        },
        {
          "internalType": "uint256",
          "name": "tokenOutAmount",
          "type": "uint256"
        },
        {
          "internalType": "address",
          "name": "account",
          "type": "address"
        }
      ],
      "name": "fulfillTokenOutSwap",
      "outputs": [],
      "stateMutability": "payable",
      "type": "function"
    },
    {
      "inputs": [
        {
          "internalType": "address",
          "name": "",
          "type": "address"
        },
        {
          "internalType": "address",
          "name": "",
          "type": "address"
        },
        {
          "internalType": "uint256[]",
          "name": "",
          "type": "uint256[]"
        },
        {
          "internalType": "uint256[]",
          "name": "",
          "type": "uint256[]"
        },
        {
          "internalType": "bytes",
          "name": "",
          "type": "bytes"
        }
      ],
      "name": "onERC1155BatchReceived",
      "outputs": [
        {
          "internalType": "bytes4",
          "name": "",
          "type": "bytes4"
        }
      ],
      "stateMutability": "nonpayable",
      "type": "function"
    },
    {
      "inputs": [
        {
          "internalType": "address",
          "name": "",
          "type": "address"
        },
        {
          "internalType": "address",
          "name": "",
          "type": "address"
        },
        {
          "internalType": "uint256",
          "name": "",
          "type": "uint256"
        },
        {
          "internalType": "uint256",
          "name": "",
          "type": "uint256"
        },
        {
          "internalType": "bytes",
          "name": "",
          "type": "bytes"
        }
      ],
      "name": "onERC1155Received",
      "outputs": [
        {
          "internalType": "bytes4",
          "name": "",
          "type": "bytes4"
        }
      ],
      "stateMutability": "nonpayable",
      "type": "function"
    },
    {
      "inputs": [
        {
          "internalType": "bytes4",
          "name": "interfaceId",
          "type": "bytes4"
        }
      ],
      "name": "supportsInterface",
      "outputs": [
        {
          "internalType": "bool",
          "name": "",
          "type": "bool"
        }
      ],
      "stateMutability": "view",
      "type": "function"
    },
    {
      "stateMutability": "payable",
      "type": "receive"
    }
  ],
  "bytecode": {
    "object": "0x608060405234801561001057600080fd5b506108d3806100206000396000f3fe60806040526004361061008a5760003560e01c80635a1a1cb8116100595780635a1a1cb8146101005780639df61d8b14610113578063bc197c8114610126578063e02393ca1461016b578063f23a6e611461017e57600080fd5b806301ffc9a7146100965780632da3ebdd146100cb578063367f0a60146100eb5780635564f45f146100ed57600080fd5b3661009157005b600080fd5b3480156100a257600080fd5b506100b66100b13660046104c2565b6101aa565b60405190151581526020015b60405180910390f35b3480156100d757600080fd5b506100eb6100e636600461050b565b6101e1565b005b6100eb6100fb36600461053b565b6102c0565b6100eb61010e366004610585565b610343565b6100eb61012136600461067e565b6103bc565b34801561013257600080fd5b5061015261014136600461077d565b63bc197c8160e01b95945050505050565b6040516001600160e01b031990911681526020016100c2565b6100eb610179366004610585565b610458565b34801561018a57600080fd5b5061015261019936600461081e565b63f23a6e6160e01b95945050505050565b60006001600160e01b03198216630271189760e51b14806101db57506301ffc9a760e01b6001600160e01b03198316145b92915050565b6000816001600160a01b03168360405160006040518083038185875af1925050503d806000811461022e576040519150601f19603f3d011682016040523d82523d6000602084013e610233565b606091505b505080915050806102bb5760405162461bcd60e51b815260206004820152604260248201527f5465737446756c66696c6c537761703a2066756c66696c6c4574684f7574537760448201527f61702073656e6420657468657220746f206d73672e73656e646572206661696c606482015261195960f21b608482015260a40160405180910390fd5b505050565b604051637921219560e11b81523060048201526001600160a01b038281166024830152604482018590526064820184905260a06084830152600060a483015285169063f242432a9060c401600060405180830381600087803b15801561032557600080fd5b505af1158015610339573d6000803e3d6000fd5b5050505050505050565b60405163a9059cbb60e01b81526001600160a01b0382811660048301526024820184905284169063a9059cbb906044016020604051808303816000875af1158015610392573d6000803e3d6000fd5b505050506040513d601f19601f820116820180604052508101906103b6919061087b565b50505050565b831561042b576040516323b872dd60e01b81523060048201526001600160a01b038481166024830152604482018690528616906323b872dd90606401600060405180830381600087803b15801561041257600080fd5b505af1158015610426573d6000803e3d6000fd5b505050505b6000808251602084016000865af13d6000803e80801561044a573d6000f35b3d6000fd5b50505050505050565b81156102bb576040516323b872dd60e01b81523060048201526001600160a01b038281166024830152604482018490528416906323b872dd90606401600060405180830381600087803b1580156104ae57600080fd5b505af115801561044f573d6000803e3d6000fd5b6000602082840312156104d457600080fd5b81356001600160e01b0319811681146104ec57600080fd5b9392505050565b6001600160a01b038116811461050857600080fd5b50565b6000806040838503121561051e57600080fd5b823591506020830135610530816104f3565b809150509250929050565b6000806000806080858703121561055157600080fd5b843561055c816104f3565b93506020850135925060408501359150606085013561057a816104f3565b939692955090935050565b60008060006060848603121561059a57600080fd5b83356105a5816104f3565b92506020840135915060408401356105bc816104f3565b809150509250925092565b634e487b7160e01b600052604160045260246000fd5b604051601f8201601f1916810167ffffffffffffffff81118282101715610606576106066105c7565b604052919050565b600082601f83011261061f57600080fd5b813567ffffffffffffffff811115610639576106396105c7565b61064c601f8201601f19166020016105dd565b81815284602083860101111561066157600080fd5b816020850160208301376000918101602001919091529392505050565b600080600080600060a0868803121561069657600080fd5b85356106a1816104f3565b94506020860135935060408601356106b8816104f3565b925060608601356106c8816104f3565b9150608086013567ffffffffffffffff8111156106e457600080fd5b6106f08882890161060e565b9150509295509295909350565b600082601f83011261070e57600080fd5b8135602067ffffffffffffffff82111561072a5761072a6105c7565b8160051b6107398282016105dd565b928352848101820192828101908785111561075357600080fd5b83870192505b8483101561077257823582529183019190830190610759565b979650505050505050565b600080600080600060a0868803121561079557600080fd5b85356107a0816104f3565b945060208601356107b0816104f3565b9350604086013567ffffffffffffffff808211156107cd57600080fd5b6107d989838a016106fd565b945060608801359150808211156107ef57600080fd5b6107fb89838a016106fd565b9350608088013591508082111561081157600080fd5b506106f08882890161060e565b600080600080600060a0868803121561083657600080fd5b8535610841816104f3565b94506020860135610851816104f3565b93506040860135925060608601359150608086013567ffffffffffffffff8111156106e457600080fd5b60006020828403121561088d57600080fd5b815180151581146104ec57600080fdfea26469706673582212206cf78aaa533d301e998cf069163567001dcb0379fb606241fcee9e306a41287b64736f6c63430008110033",
    "linkReferences": {}
  },
  "methodIdentifiers": {
    "fulfillERC1155OutSwap(address,uint256,uint256,address)": "5564f45f",
    "fulfillEthOutSwap(uint256,address)": "2da3ebdd",
    "fulfillNftOutSwap(address,uint256,address)": "e02393ca",
    "fulfillNftOutSwapAndCall(address,uint256,address,address,bytes)": "9df61d8b",
    "fulfillNothing()": "367f0a60",
    "fulfillTokenOutSwap(address,uint256,address)": "5a1a1cb8",
    "onERC1155BatchReceived(address,address,uint256[],uint256[],bytes)": "bc197c81",
    "onERC1155Received(address,address,uint256,uint256,bytes)": "f23a6e61",
    "supportsInterface(bytes4)": "01ffc9a7"
  },
  "id": 41
}